{
	"marksmanagementsys.sol": {
		"MarksManagmtSys": {
			"abi": [
				{
					"inputs": [],
					"stateMutability": "nonpayable",
					"type": "constructor"
				},
				{
					"stateMutability": "payable",
					"type": "fallback"
				},
				{
					"inputs": [
						{
							"internalType": "uint256",
							"name": "_ID",
							"type": "uint256"
						},
						{
							"internalType": "string",
							"name": "_fName",
							"type": "string"
						},
						{
							"internalType": "string",
							"name": "_lName",
							"type": "string"
						},
						{
							"internalType": "uint256",
							"name": "_marks",
							"type": "uint256"
						}
					],
					"name": "addNewRecords",
					"outputs": [],
					"stateMutability": "nonpayable",
					"type": "function"
				},
				{
					"inputs": [],
					"name": "getAllRecords",
					"outputs": [
						{
							"components": [
								{
									"internalType": "uint256",
									"name": "ID",
									"type": "uint256"
								},
								{
									"internalType": "string",
									"name": "fName",
									"type": "string"
								},
								{
									"internalType": "string",
									"name": "lName",
									"type": "string"
								},
								{
									"internalType": "uint256",
									"name": "marks",
									"type": "uint256"
								}
							],
							"internalType": "struct MarksManagmtSys.StudentStruct[]",
							"name": "",
							"type": "tuple[]"
						}
					],
					"stateMutability": "view",
					"type": "function"
				},
				{
					"inputs": [],
					"name": "owner",
					"outputs": [
						{
							"internalType": "address",
							"name": "",
							"type": "address"
						}
					],
					"stateMutability": "view",
					"type": "function"
				},
				{
					"inputs": [],
					"name": "stdCount",
					"outputs": [
						{
							"internalType": "uint256",
							"name": "",
							"type": "uint256"
						}
					],
					"stateMutability": "view",
					"type": "function"
				},
				{
					"inputs": [
						{
							"internalType": "uint256",
							"name": "",
							"type": "uint256"
						}
					],
					"name": "stdRecords",
					"outputs": [
						{
							"internalType": "uint256",
							"name": "ID",
							"type": "uint256"
						},
						{
							"internalType": "string",
							"name": "fName",
							"type": "string"
						},
						{
							"internalType": "string",
							"name": "lName",
							"type": "string"
						},
						{
							"internalType": "uint256",
							"name": "marks",
							"type": "uint256"
						}
					],
					"stateMutability": "view",
					"type": "function"
				},
				{
					"stateMutability": "payable",
					"type": "receive"
				}
			],
			"devdoc": {
				"kind": "dev",
				"methods": {},
				"version": 1
			},
			"evm": {
				"assembly": "    /* \"marksmanagementsys.sol\":75:1218  contract MarksManagmtSys {... */\n  mstore(0x40, 0x80)\n    /* \"marksmanagementsys.sol\":279:280  0 */\n  0x00\n    /* \"marksmanagementsys.sol\":256:280  uint public stdCount = 0 */\n  0x01\n  sstore\n    /* \"marksmanagementsys.sol\":329:380  constructor() {... */\n  callvalue\n  dup1\n  iszero\n  tag_1\n  jumpi\n  revert(0x00, 0x00)\ntag_1:\n  pop\n    /* \"marksmanagementsys.sol\":362:372  msg.sender */\n  caller\n    /* \"marksmanagementsys.sol\":354:359  owner */\n  0x00\n  0x00\n    /* \"marksmanagementsys.sol\":354:372  owner = msg.sender */\n  0x0100\n  exp\n  dup2\n  sload\n  dup2\n  0xffffffffffffffffffffffffffffffffffffffff\n  mul\n  not\n  and\n  swap1\n  dup4\n  0xffffffffffffffffffffffffffffffffffffffff\n  and\n  mul\n  or\n  swap1\n  sstore\n  pop\n    /* \"marksmanagementsys.sol\":75:1218  contract MarksManagmtSys {... */\n  dataSize(sub_0)\n  dup1\n  dataOffset(sub_0)\n  0x00\n  codecopy\n  0x00\n  return\nstop\n\nsub_0: assembly {\n        /* \"marksmanagementsys.sol\":75:1218  contract MarksManagmtSys {... */\n      mstore(0x40, 0x80)\n      jumpi(tag_1, lt(calldatasize, 0x04))\n      shr(0xe0, calldataload(0x00))\n      dup1\n      0x0c3361fb\n      eq\n      tag_3\n      jumpi\n      dup1\n      0x8da5cb5b\n      eq\n      tag_4\n      jumpi\n      dup1\n      0xa7f9fe72\n      eq\n      tag_5\n      jumpi\n      dup1\n      0xc7c75156\n      eq\n      tag_6\n      jumpi\n      dup1\n      0xfe615f2a\n      eq\n      tag_7\n      jumpi\n      jump(tag_2)\n    tag_1:\n    tag_2:\n      stop\n        /* \"marksmanagementsys.sol\":287:320  StudentStruct[] public stdRecords */\n    tag_3:\n      callvalue\n      dup1\n      iszero\n      tag_12\n      jumpi\n      revert(0x00, 0x00)\n    tag_12:\n      pop\n      tag_13\n      0x04\n      dup1\n      calldatasize\n      sub\n      dup2\n      add\n      swap1\n      tag_14\n      swap2\n      swap1\n      tag_15\n      jump\t// in\n    tag_14:\n      tag_16\n      jump\t// in\n    tag_13:\n      mload(0x40)\n      tag_17\n      swap5\n      swap4\n      swap3\n      swap2\n      swap1\n      tag_18\n      jump\t// in\n    tag_17:\n      mload(0x40)\n      dup1\n      swap2\n      sub\n      swap1\n      return\n        /* \"marksmanagementsys.sol\":229:249  address public owner */\n    tag_4:\n      callvalue\n      dup1\n      iszero\n      tag_19\n      jumpi\n      revert(0x00, 0x00)\n    tag_19:\n      pop\n      tag_20\n      tag_21\n      jump\t// in\n    tag_20:\n      mload(0x40)\n      tag_22\n      swap2\n      swap1\n      tag_23\n      jump\t// in\n    tag_22:\n      mload(0x40)\n      dup1\n      swap2\n      sub\n      swap1\n      return\n        /* \"marksmanagementsys.sol\":635:928  function getAllRecords() public view returns (StudentStruct[] memory) {... */\n    tag_5:\n      callvalue\n      dup1\n      iszero\n      tag_24\n      jumpi\n      revert(0x00, 0x00)\n    tag_24:\n      pop\n      tag_25\n      tag_26\n      jump\t// in\n    tag_25:\n      mload(0x40)\n      tag_27\n      swap2\n      swap1\n      tag_28\n      jump\t// in\n    tag_27:\n      mload(0x40)\n      dup1\n      swap2\n      sub\n      swap1\n      return\n        /* \"marksmanagementsys.sol\":388:627  function addNewRecords(... */\n    tag_6:\n      callvalue\n      dup1\n      iszero\n      tag_29\n      jumpi\n      revert(0x00, 0x00)\n    tag_29:\n      pop\n      tag_30\n      0x04\n      dup1\n      calldatasize\n      sub\n      dup2\n      add\n      swap1\n      tag_31\n      swap2\n      swap1\n      tag_32\n      jump\t// in\n    tag_31:\n      tag_33\n      jump\t// in\n    tag_30:\n      stop\n        /* \"marksmanagementsys.sol\":256:280  uint public stdCount = 0 */\n    tag_7:\n      callvalue\n      dup1\n      iszero\n      tag_34\n      jumpi\n      revert(0x00, 0x00)\n    tag_34:\n      pop\n      tag_35\n      tag_36\n      jump\t// in\n    tag_35:\n      mload(0x40)\n      tag_37\n      swap2\n      swap1\n      tag_38\n      jump\t// in\n    tag_37:\n      mload(0x40)\n      dup1\n      swap2\n      sub\n      swap1\n      return\n        /* \"marksmanagementsys.sol\":287:320  StudentStruct[] public stdRecords */\n    tag_16:\n      0x02\n      dup2\n      dup2\n      sload\n      dup2\n      lt\n      tag_39\n      jumpi\n      0x00\n      dup1\n      revert\n    tag_39:\n      swap1\n      0x00\n      mstore\n      keccak256(0x00, 0x20)\n      swap1\n      0x04\n      mul\n      add\n      0x00\n      swap2\n      pop\n      swap1\n      pop\n      dup1\n      0x00\n      add\n      sload\n      swap1\n      dup1\n      0x01\n      add\n      dup1\n      sload\n      tag_41\n      swap1\n      tag_42\n      jump\t// in\n    tag_41:\n      dup1\n      0x1f\n      add\n      0x20\n      dup1\n      swap2\n      div\n      mul\n      0x20\n      add\n      mload(0x40)\n      swap1\n      dup2\n      add\n      0x40\n      mstore\n      dup1\n      swap3\n      swap2\n      swap1\n      dup2\n      dup2\n      mstore\n      0x20\n      add\n      dup3\n      dup1\n      sload\n      tag_43\n      swap1\n      tag_42\n      jump\t// in\n    tag_43:\n      dup1\n      iszero\n      tag_44\n      jumpi\n      dup1\n      0x1f\n      lt\n      tag_45\n      jumpi\n      0x0100\n      dup1\n      dup4\n      sload\n      div\n      mul\n      dup4\n      mstore\n      swap2\n      0x20\n      add\n      swap2\n      jump(tag_44)\n    tag_45:\n      dup3\n      add\n      swap2\n      swap1\n      0x00\n      mstore\n      keccak256(0x00, 0x20)\n      swap1\n    tag_46:\n      dup2\n      sload\n      dup2\n      mstore\n      swap1\n      0x01\n      add\n      swap1\n      0x20\n      add\n      dup1\n      dup4\n      gt\n      tag_46\n      jumpi\n      dup3\n      swap1\n      sub\n      0x1f\n      and\n      dup3\n      add\n      swap2\n    tag_44:\n      pop\n      pop\n      pop\n      pop\n      pop\n      swap1\n      dup1\n      0x02\n      add\n      dup1\n      sload\n      tag_47\n      swap1\n      tag_42\n      jump\t// in\n    tag_47:\n      dup1\n      0x1f\n      add\n      0x20\n      dup1\n      swap2\n      div\n      mul\n      0x20\n      add\n      mload(0x40)\n      swap1\n      dup2\n      add\n      0x40\n      mstore\n      dup1\n      swap3\n      swap2\n      swap1\n      dup2\n      dup2\n      mstore\n      0x20\n      add\n      dup3\n      dup1\n      sload\n      tag_48\n      swap1\n      tag_42\n      jump\t// in\n    tag_48:\n      dup1\n      iszero\n      tag_49\n      jumpi\n      dup1\n      0x1f\n      lt\n      tag_50\n      jumpi\n      0x0100\n      dup1\n      dup4\n      sload\n      div\n      mul\n      dup4\n      mstore\n      swap2\n      0x20\n      add\n      swap2\n      jump(tag_49)\n    tag_50:\n      dup3\n      add\n      swap2\n      swap1\n      0x00\n      mstore\n      keccak256(0x00, 0x20)\n      swap1\n    tag_51:\n      dup2\n      sload\n      dup2\n      mstore\n      swap1\n      0x01\n      add\n      swap1\n      0x20\n      add\n      dup1\n      dup4\n      gt\n      tag_51\n      jumpi\n      dup3\n      swap1\n      sub\n      0x1f\n      and\n      dup3\n      add\n      swap2\n    tag_49:\n      pop\n      pop\n      pop\n      pop\n      pop\n      swap1\n      dup1\n      0x03\n      add\n      sload\n      swap1\n      pop\n      dup5\n      jump\t// out\n        /* \"marksmanagementsys.sol\":229:249  address public owner */\n    tag_21:\n      0x00\n      0x00\n      swap1\n      sload\n      swap1\n      0x0100\n      exp\n      swap1\n      div\n      0xffffffffffffffffffffffffffffffffffffffff\n      and\n      dup2\n      jump\t// out\n        /* \"marksmanagementsys.sol\":635:928  function getAllRecords() public view returns (StudentStruct[] memory) {... */\n    tag_26:\n        /* \"marksmanagementsys.sol\":681:703  StudentStruct[] memory */\n      0x60\n        /* \"marksmanagementsys.sol\":716:746  StudentStruct[] memory records */\n      0x00\n        /* \"marksmanagementsys.sol\":769:779  stdRecords */\n      0x02\n        /* \"marksmanagementsys.sol\":769:786  stdRecords.length */\n      dup1\n      sload\n      swap1\n      pop\n        /* \"marksmanagementsys.sol\":749:787  new StudentStruct[](stdRecords.length) */\n      0xffffffffffffffff\n      dup2\n      gt\n      iszero\n      tag_53\n      jumpi\n      tag_54\n      tag_55\n      jump\t// in\n    tag_54:\n    tag_53:\n      mload(0x40)\n      swap1\n      dup1\n      dup3\n      mstore\n      dup1\n      0x20\n      mul\n      0x20\n      add\n      dup3\n      add\n      0x40\n      mstore\n      dup1\n      iszero\n      tag_56\n      jumpi\n      dup2\n      0x20\n      add\n    tag_57:\n      tag_58\n      tag_59\n      jump\t// in\n    tag_58:\n      dup2\n      mstore\n      0x20\n      add\n      swap1\n      0x01\n      swap1\n      sub\n      swap1\n      dup2\n      tag_57\n      jumpi\n      swap1\n      pop\n    tag_56:\n      pop\n        /* \"marksmanagementsys.sol\":716:787  StudentStruct[] memory records = new StudentStruct[](stdRecords.length) */\n      swap1\n      pop\n        /* \"marksmanagementsys.sol\":803:809  uint i */\n      0x00\n        /* \"marksmanagementsys.sol\":812:813  0 */\n      0x00\n        /* \"marksmanagementsys.sol\":803:813  uint i = 0 */\n      swap1\n      pop\n        /* \"marksmanagementsys.sol\":798:896  for (uint i = 0; i < stdRecords.length; i++) {... */\n    tag_60:\n        /* \"marksmanagementsys.sol\":819:829  stdRecords */\n      0x02\n        /* \"marksmanagementsys.sol\":819:836  stdRecords.length */\n      dup1\n      sload\n      swap1\n      pop\n        /* \"marksmanagementsys.sol\":815:816  i */\n      dup2\n        /* \"marksmanagementsys.sol\":815:836  i < stdRecords.length */\n      lt\n        /* \"marksmanagementsys.sol\":798:896  for (uint i = 0; i < stdRecords.length; i++) {... */\n      iszero\n      tag_61\n      jumpi\n        /* \"marksmanagementsys.sol\":871:881  stdRecords */\n      0x02\n        /* \"marksmanagementsys.sol\":882:883  i */\n      dup2\n        /* \"marksmanagementsys.sol\":871:884  stdRecords[i] */\n      dup2\n      sload\n      dup2\n      lt\n      tag_63\n      jumpi\n      tag_64\n      tag_65\n      jump\t// in\n    tag_64:\n    tag_63:\n      swap1\n      0x00\n      mstore\n      keccak256(0x00, 0x20)\n      swap1\n      0x04\n      mul\n      add\n        /* \"marksmanagementsys.sol\":858:884  records[i] = stdRecords[i] */\n      mload(0x40)\n      dup1\n      0x80\n      add\n      0x40\n      mstore\n      swap1\n      dup2\n      0x00\n      dup3\n      add\n      sload\n      dup2\n      mstore\n      0x20\n      add\n      0x01\n      dup3\n      add\n      dup1\n      sload\n      tag_67\n      swap1\n      tag_42\n      jump\t// in\n    tag_67:\n      dup1\n      0x1f\n      add\n      0x20\n      dup1\n      swap2\n      div\n      mul\n      0x20\n      add\n      mload(0x40)\n      swap1\n      dup2\n      add\n      0x40\n      mstore\n      dup1\n      swap3\n      swap2\n      swap1\n      dup2\n      dup2\n      mstore\n      0x20\n      add\n      dup3\n      dup1\n      sload\n      tag_68\n      swap1\n      tag_42\n      jump\t// in\n    tag_68:\n      dup1\n      iszero\n      tag_69\n      jumpi\n      dup1\n      0x1f\n      lt\n      tag_70\n      jumpi\n      0x0100\n      dup1\n      dup4\n      sload\n      div\n      mul\n      dup4\n      mstore\n      swap2\n      0x20\n      add\n      swap2\n      jump(tag_69)\n    tag_70:\n      dup3\n      add\n      swap2\n      swap1\n      0x00\n      mstore\n      keccak256(0x00, 0x20)\n      swap1\n    tag_71:\n      dup2\n      sload\n      dup2\n      mstore\n      swap1\n      0x01\n      add\n      swap1\n      0x20\n      add\n      dup1\n      dup4\n      gt\n      tag_71\n      jumpi\n      dup3\n      swap1\n      sub\n      0x1f\n      and\n      dup3\n      add\n      swap2\n    tag_69:\n      pop\n      pop\n      pop\n      pop\n      pop\n      dup2\n      mstore\n      0x20\n      add\n      0x02\n      dup3\n      add\n      dup1\n      sload\n      tag_72\n      swap1\n      tag_42\n      jump\t// in\n    tag_72:\n      dup1\n      0x1f\n      add\n      0x20\n      dup1\n      swap2\n      div\n      mul\n      0x20\n      add\n      mload(0x40)\n      swap1\n      dup2\n      add\n      0x40\n      mstore\n      dup1\n      swap3\n      swap2\n      swap1\n      dup2\n      dup2\n      mstore\n      0x20\n      add\n      dup3\n      dup1\n      sload\n      tag_73\n      swap1\n      tag_42\n      jump\t// in\n    tag_73:\n      dup1\n      iszero\n      tag_74\n      jumpi\n      dup1\n      0x1f\n      lt\n      tag_75\n      jumpi\n      0x0100\n      dup1\n      dup4\n      sload\n      div\n      mul\n      dup4\n      mstore\n      swap2\n      0x20\n      add\n      swap2\n      jump(tag_74)\n    tag_75:\n      dup3\n      add\n      swap2\n      swap1\n      0x00\n      mstore\n      keccak256(0x00, 0x20)\n      swap1\n    tag_76:\n      dup2\n      sload\n      dup2\n      mstore\n      swap1\n      0x01\n      add\n      swap1\n      0x20\n      add\n      dup1\n      dup4\n      gt\n      tag_76\n      jumpi\n      dup3\n      swap1\n      sub\n      0x1f\n      and\n      dup3\n      add\n      swap2\n    tag_74:\n      pop\n      pop\n      pop\n      pop\n      pop\n      dup2\n      mstore\n      0x20\n      add\n      0x03\n      dup3\n      add\n      sload\n      dup2\n      mstore\n      pop\n      pop\n        /* \"marksmanagementsys.sol\":858:865  records */\n      dup3\n        /* \"marksmanagementsys.sol\":866:867  i */\n      dup3\n        /* \"marksmanagementsys.sol\":858:868  records[i] */\n      dup2\n      mload\n      dup2\n      lt\n      tag_77\n      jumpi\n      tag_78\n      tag_65\n      jump\t// in\n    tag_78:\n    tag_77:\n      0x20\n      mul\n      0x20\n      add\n      add\n        /* \"marksmanagementsys.sol\":858:884  records[i] = stdRecords[i] */\n      dup2\n      swap1\n      mstore\n      pop\n        /* \"marksmanagementsys.sol\":838:841  i++ */\n      dup1\n      dup1\n      0x01\n      add\n      swap2\n      pop\n      pop\n        /* \"marksmanagementsys.sol\":798:896  for (uint i = 0; i < stdRecords.length; i++) {... */\n      jump(tag_60)\n    tag_61:\n      pop\n        /* \"marksmanagementsys.sol\":913:920  records */\n      dup1\n        /* \"marksmanagementsys.sol\":906:920  return records */\n      swap2\n      pop\n      pop\n        /* \"marksmanagementsys.sol\":635:928  function getAllRecords() public view returns (StudentStruct[] memory) {... */\n      swap1\n      jump\t// out\n        /* \"marksmanagementsys.sol\":388:627  function addNewRecords(... */\n    tag_33:\n        /* \"marksmanagementsys.sol\":539:547  stdCount */\n      0x01\n      0x00\n        /* \"marksmanagementsys.sol\":539:549  stdCount++ */\n      dup2\n      sload\n      dup1\n      swap3\n      swap2\n      swap1\n      tag_80\n      swap1\n      tag_81\n      jump\t// in\n    tag_80:\n      swap2\n      swap1\n      pop\n      sstore\n      pop\n        /* \"marksmanagementsys.sol\":560:570  stdRecords */\n      0x02\n        /* \"marksmanagementsys.sol\":576:618  StudentStruct(_ID, _fName, _lName, _marks) */\n      mload(0x40)\n      dup1\n      0x80\n      add\n      0x40\n      mstore\n      dup1\n        /* \"marksmanagementsys.sol\":590:593  _ID */\n      dup7\n        /* \"marksmanagementsys.sol\":576:618  StudentStruct(_ID, _fName, _lName, _marks) */\n      dup2\n      mstore\n      0x20\n      add\n        /* \"marksmanagementsys.sol\":595:601  _fName */\n      dup6\n        /* \"marksmanagementsys.sol\":576:618  StudentStruct(_ID, _fName, _lName, _marks) */\n      dup2\n      mstore\n      0x20\n      add\n        /* \"marksmanagementsys.sol\":603:609  _lName */\n      dup5\n        /* \"marksmanagementsys.sol\":576:618  StudentStruct(_ID, _fName, _lName, _marks) */\n      dup2\n      mstore\n      0x20\n      add\n        /* \"marksmanagementsys.sol\":611:617  _marks */\n      dup4\n        /* \"marksmanagementsys.sol\":576:618  StudentStruct(_ID, _fName, _lName, _marks) */\n      dup2\n      mstore\n      pop\n        /* \"marksmanagementsys.sol\":560:619  stdRecords.push(StudentStruct(_ID, _fName, _lName, _marks)) */\n      swap1\n      dup1\n      0x01\n      dup2\n      sload\n      add\n      dup1\n      dup3\n      sstore\n      dup1\n      swap2\n      pop\n      pop\n      0x01\n      swap1\n      sub\n      swap1\n      0x00\n      mstore\n      keccak256(0x00, 0x20)\n      swap1\n      0x04\n      mul\n      add\n      0x00\n      swap1\n      swap2\n      swap1\n      swap2\n      swap1\n      swap2\n      pop\n      0x00\n      dup3\n      add\n      mload\n      dup2\n      0x00\n      add\n      sstore\n      0x20\n      dup3\n      add\n      mload\n      dup2\n      0x01\n      add\n      swap1\n      dup2\n      tag_83\n      swap2\n      swap1\n      tag_84\n      jump\t// in\n    tag_83:\n      pop\n      0x40\n      dup3\n      add\n      mload\n      dup2\n      0x02\n      add\n      swap1\n      dup2\n      tag_85\n      swap2\n      swap1\n      tag_84\n      jump\t// in\n    tag_85:\n      pop\n      0x60\n      dup3\n      add\n      mload\n      dup2\n      0x03\n      add\n      sstore\n      pop\n      pop\n        /* \"marksmanagementsys.sol\":388:627  function addNewRecords(... */\n      pop\n      pop\n      pop\n      pop\n      jump\t// out\n        /* \"marksmanagementsys.sol\":256:280  uint public stdCount = 0 */\n    tag_36:\n      sload(0x01)\n      dup2\n      jump\t// out\n    tag_59:\n      mload(0x40)\n      dup1\n      0x80\n      add\n      0x40\n      mstore\n      dup1\n      0x00\n      dup2\n      mstore\n      0x20\n      add\n      0x60\n      dup2\n      mstore\n      0x20\n      add\n      0x60\n      dup2\n      mstore\n      0x20\n      add\n      0x00\n      dup2\n      mstore\n      pop\n      swap1\n      jump\t// out\n        /* \"#utility.yul\":7:82   */\n    tag_86:\n        /* \"#utility.yul\":40:46   */\n      0x00\n        /* \"#utility.yul\":73:75   */\n      0x40\n        /* \"#utility.yul\":67:76   */\n      mload\n        /* \"#utility.yul\":57:76   */\n      swap1\n      pop\n        /* \"#utility.yul\":7:82   */\n      swap1\n      jump\t// out\n        /* \"#utility.yul\":88:205   */\n    tag_87:\n        /* \"#utility.yul\":197:198   */\n      0x00\n        /* \"#utility.yul\":194:195   */\n      0x00\n        /* \"#utility.yul\":187:199   */\n      revert\n        /* \"#utility.yul\":211:328   */\n    tag_88:\n        /* \"#utility.yul\":320:321   */\n      0x00\n        /* \"#utility.yul\":317:318   */\n      0x00\n        /* \"#utility.yul\":310:322   */\n      revert\n        /* \"#utility.yul\":334:411   */\n    tag_89:\n        /* \"#utility.yul\":371:378   */\n      0x00\n        /* \"#utility.yul\":400:405   */\n      dup2\n        /* \"#utility.yul\":389:405   */\n      swap1\n      pop\n        /* \"#utility.yul\":334:411   */\n      swap2\n      swap1\n      pop\n      jump\t// out\n        /* \"#utility.yul\":417:539   */\n    tag_90:\n        /* \"#utility.yul\":490:514   */\n      tag_142\n        /* \"#utility.yul\":508:513   */\n      dup2\n        /* \"#utility.yul\":490:514   */\n      tag_89\n      jump\t// in\n    tag_142:\n        /* \"#utility.yul\":483:488   */\n      dup2\n        /* \"#utility.yul\":480:515   */\n      eq\n        /* \"#utility.yul\":470:533   */\n      tag_143\n      jumpi\n        /* \"#utility.yul\":529:530   */\n      0x00\n        /* \"#utility.yul\":526:527   */\n      0x00\n        /* \"#utility.yul\":519:531   */\n      revert\n        /* \"#utility.yul\":470:533   */\n    tag_143:\n        /* \"#utility.yul\":417:539   */\n      pop\n      jump\t// out\n        /* \"#utility.yul\":545:684   */\n    tag_91:\n        /* \"#utility.yul\":591:596   */\n      0x00\n        /* \"#utility.yul\":629:635   */\n      dup2\n        /* \"#utility.yul\":616:636   */\n      calldataload\n        /* \"#utility.yul\":607:636   */\n      swap1\n      pop\n        /* \"#utility.yul\":645:678   */\n      tag_145\n        /* \"#utility.yul\":672:677   */\n      dup2\n        /* \"#utility.yul\":645:678   */\n      tag_90\n      jump\t// in\n    tag_145:\n        /* \"#utility.yul\":545:684   */\n      swap3\n      swap2\n      pop\n      pop\n      jump\t// out\n        /* \"#utility.yul\":690:1019   */\n    tag_15:\n        /* \"#utility.yul\":749:755   */\n      0x00\n        /* \"#utility.yul\":798:800   */\n      0x20\n        /* \"#utility.yul\":786:795   */\n      dup3\n        /* \"#utility.yul\":777:784   */\n      dup5\n        /* \"#utility.yul\":773:796   */\n      sub\n        /* \"#utility.yul\":769:801   */\n      slt\n        /* \"#utility.yul\":766:885   */\n      iszero\n      tag_147\n      jumpi\n        /* \"#utility.yul\":804:883   */\n      tag_148\n      tag_87\n      jump\t// in\n    tag_148:\n        /* \"#utility.yul\":766:885   */\n    tag_147:\n        /* \"#utility.yul\":924:925   */\n      0x00\n        /* \"#utility.yul\":949:1002   */\n      tag_149\n        /* \"#utility.yul\":994:1001   */\n      dup5\n        /* \"#utility.yul\":985:991   */\n      dup3\n        /* \"#utility.yul\":974:983   */\n      dup6\n        /* \"#utility.yul\":970:992   */\n      add\n        /* \"#utility.yul\":949:1002   */\n      tag_91\n      jump\t// in\n    tag_149:\n        /* \"#utility.yul\":939:1002   */\n      swap2\n      pop\n        /* \"#utility.yul\":895:1012   */\n      pop\n        /* \"#utility.yul\":690:1019   */\n      swap3\n      swap2\n      pop\n      pop\n      jump\t// out\n        /* \"#utility.yul\":1025:1143   */\n    tag_92:\n        /* \"#utility.yul\":1112:1136   */\n      tag_151\n        /* \"#utility.yul\":1130:1135   */\n      dup2\n        /* \"#utility.yul\":1112:1136   */\n      tag_89\n      jump\t// in\n    tag_151:\n        /* \"#utility.yul\":1107:1110   */\n      dup3\n        /* \"#utility.yul\":1100:1137   */\n      mstore\n        /* \"#utility.yul\":1025:1143   */\n      pop\n      pop\n      jump\t// out\n        /* \"#utility.yul\":1149:1248   */\n    tag_93:\n        /* \"#utility.yul\":1201:1207   */\n      0x00\n        /* \"#utility.yul\":1235:1240   */\n      dup2\n        /* \"#utility.yul\":1229:1241   */\n      mload\n        /* \"#utility.yul\":1219:1241   */\n      swap1\n      pop\n        /* \"#utility.yul\":1149:1248   */\n      swap2\n      swap1\n      pop\n      jump\t// out\n        /* \"#utility.yul\":1254:1423   */\n    tag_94:\n        /* \"#utility.yul\":1338:1349   */\n      0x00\n        /* \"#utility.yul\":1372:1378   */\n      dup3\n        /* \"#utility.yul\":1367:1370   */\n      dup3\n        /* \"#utility.yul\":1360:1379   */\n      mstore\n        /* \"#utility.yul\":1412:1416   */\n      0x20\n        /* \"#utility.yul\":1407:1410   */\n      dup3\n        /* \"#utility.yul\":1403:1417   */\n      add\n        /* \"#utility.yul\":1388:1417   */\n      swap1\n      pop\n        /* \"#utility.yul\":1254:1423   */\n      swap3\n      swap2\n      pop\n      pop\n      jump\t// out\n        /* \"#utility.yul\":1429:1568   */\n    tag_95:\n        /* \"#utility.yul\":1518:1524   */\n      dup3\n        /* \"#utility.yul\":1513:1516   */\n      dup2\n        /* \"#utility.yul\":1508:1511   */\n      dup4\n        /* \"#utility.yul\":1502:1525   */\n      mcopy\n        /* \"#utility.yul\":1559:1560   */\n      0x00\n        /* \"#utility.yul\":1550:1556   */\n      dup4\n        /* \"#utility.yul\":1545:1548   */\n      dup4\n        /* \"#utility.yul\":1541:1557   */\n      add\n        /* \"#utility.yul\":1534:1561   */\n      mstore\n        /* \"#utility.yul\":1429:1568   */\n      pop\n      pop\n      pop\n      jump\t// out\n        /* \"#utility.yul\":1574:1676   */\n    tag_96:\n        /* \"#utility.yul\":1615:1621   */\n      0x00\n        /* \"#utility.yul\":1666:1668   */\n      0x1f\n        /* \"#utility.yul\":1662:1669   */\n      not\n        /* \"#utility.yul\":1657:1659   */\n      0x1f\n        /* \"#utility.yul\":1650:1655   */\n      dup4\n        /* \"#utility.yul\":1646:1660   */\n      add\n        /* \"#utility.yul\":1642:1670   */\n      and\n        /* \"#utility.yul\":1632:1670   */\n      swap1\n      pop\n        /* \"#utility.yul\":1574:1676   */\n      swap2\n      swap1\n      pop\n      jump\t// out\n        /* \"#utility.yul\":1682:2059   */\n    tag_97:\n        /* \"#utility.yul\":1770:1773   */\n      0x00\n        /* \"#utility.yul\":1798:1837   */\n      tag_157\n        /* \"#utility.yul\":1831:1836   */\n      dup3\n        /* \"#utility.yul\":1798:1837   */\n      tag_93\n      jump\t// in\n    tag_157:\n        /* \"#utility.yul\":1853:1924   */\n      tag_158\n        /* \"#utility.yul\":1917:1923   */\n      dup2\n        /* \"#utility.yul\":1912:1915   */\n      dup6\n        /* \"#utility.yul\":1853:1924   */\n      tag_94\n      jump\t// in\n    tag_158:\n        /* \"#utility.yul\":1846:1924   */\n      swap4\n      pop\n        /* \"#utility.yul\":1933:1998   */\n      tag_159\n        /* \"#utility.yul\":1991:1997   */\n      dup2\n        /* \"#utility.yul\":1986:1989   */\n      dup6\n        /* \"#utility.yul\":1979:1983   */\n      0x20\n        /* \"#utility.yul\":1972:1977   */\n      dup7\n        /* \"#utility.yul\":1968:1984   */\n      add\n        /* \"#utility.yul\":1933:1998   */\n      tag_95\n      jump\t// in\n    tag_159:\n        /* \"#utility.yul\":2023:2052   */\n      tag_160\n        /* \"#utility.yul\":2045:2051   */\n      dup2\n        /* \"#utility.yul\":2023:2052   */\n      tag_96\n      jump\t// in\n    tag_160:\n        /* \"#utility.yul\":2018:2021   */\n      dup5\n        /* \"#utility.yul\":2014:2053   */\n      add\n        /* \"#utility.yul\":2007:2053   */\n      swap2\n      pop\n        /* \"#utility.yul\":1774:2059   */\n      pop\n        /* \"#utility.yul\":1682:2059   */\n      swap3\n      swap2\n      pop\n      pop\n      jump\t// out\n        /* \"#utility.yul\":2065:2800   */\n    tag_18:\n        /* \"#utility.yul\":2282:2286   */\n      0x00\n        /* \"#utility.yul\":2320:2323   */\n      0x80\n        /* \"#utility.yul\":2309:2318   */\n      dup3\n        /* \"#utility.yul\":2305:2324   */\n      add\n        /* \"#utility.yul\":2297:2324   */\n      swap1\n      pop\n        /* \"#utility.yul\":2334:2405   */\n      tag_162\n        /* \"#utility.yul\":2402:2403   */\n      0x00\n        /* \"#utility.yul\":2391:2400   */\n      dup4\n        /* \"#utility.yul\":2387:2404   */\n      add\n        /* \"#utility.yul\":2378:2384   */\n      dup8\n        /* \"#utility.yul\":2334:2405   */\n      tag_92\n      jump\t// in\n    tag_162:\n        /* \"#utility.yul\":2452:2461   */\n      dup2\n        /* \"#utility.yul\":2446:2450   */\n      dup2\n        /* \"#utility.yul\":2442:2462   */\n      sub\n        /* \"#utility.yul\":2437:2439   */\n      0x20\n        /* \"#utility.yul\":2426:2435   */\n      dup4\n        /* \"#utility.yul\":2422:2440   */\n      add\n        /* \"#utility.yul\":2415:2463   */\n      mstore\n        /* \"#utility.yul\":2480:2558   */\n      tag_163\n        /* \"#utility.yul\":2553:2557   */\n      dup2\n        /* \"#utility.yul\":2544:2550   */\n      dup7\n        /* \"#utility.yul\":2480:2558   */\n      tag_97\n      jump\t// in\n    tag_163:\n        /* \"#utility.yul\":2472:2558   */\n      swap1\n      pop\n        /* \"#utility.yul\":2605:2614   */\n      dup2\n        /* \"#utility.yul\":2599:2603   */\n      dup2\n        /* \"#utility.yul\":2595:2615   */\n      sub\n        /* \"#utility.yul\":2590:2592   */\n      0x40\n        /* \"#utility.yul\":2579:2588   */\n      dup4\n        /* \"#utility.yul\":2575:2593   */\n      add\n        /* \"#utility.yul\":2568:2616   */\n      mstore\n        /* \"#utility.yul\":2633:2711   */\n      tag_164\n        /* \"#utility.yul\":2706:2710   */\n      dup2\n        /* \"#utility.yul\":2697:2703   */\n      dup6\n        /* \"#utility.yul\":2633:2711   */\n      tag_97\n      jump\t// in\n    tag_164:\n        /* \"#utility.yul\":2625:2711   */\n      swap1\n      pop\n        /* \"#utility.yul\":2721:2793   */\n      tag_165\n        /* \"#utility.yul\":2789:2791   */\n      0x60\n        /* \"#utility.yul\":2778:2787   */\n      dup4\n        /* \"#utility.yul\":2774:2792   */\n      add\n        /* \"#utility.yul\":2765:2771   */\n      dup5\n        /* \"#utility.yul\":2721:2793   */\n      tag_92\n      jump\t// in\n    tag_165:\n        /* \"#utility.yul\":2065:2800   */\n      swap6\n      swap5\n      pop\n      pop\n      pop\n      pop\n      pop\n      jump\t// out\n        /* \"#utility.yul\":2806:2932   */\n    tag_98:\n        /* \"#utility.yul\":2843:2850   */\n      0x00\n        /* \"#utility.yul\":2883:2925   */\n      0xffffffffffffffffffffffffffffffffffffffff\n        /* \"#utility.yul\":2876:2881   */\n      dup3\n        /* \"#utility.yul\":2872:2926   */\n      and\n        /* \"#utility.yul\":2861:2926   */\n      swap1\n      pop\n        /* \"#utility.yul\":2806:2932   */\n      swap2\n      swap1\n      pop\n      jump\t// out\n        /* \"#utility.yul\":2938:3034   */\n    tag_99:\n        /* \"#utility.yul\":2975:2982   */\n      0x00\n        /* \"#utility.yul\":3004:3028   */\n      tag_168\n        /* \"#utility.yul\":3022:3027   */\n      dup3\n        /* \"#utility.yul\":3004:3028   */\n      tag_98\n      jump\t// in\n    tag_168:\n        /* \"#utility.yul\":2993:3028   */\n      swap1\n      pop\n        /* \"#utility.yul\":2938:3034   */\n      swap2\n      swap1\n      pop\n      jump\t// out\n        /* \"#utility.yul\":3040:3158   */\n    tag_100:\n        /* \"#utility.yul\":3127:3151   */\n      tag_170\n        /* \"#utility.yul\":3145:3150   */\n      dup2\n        /* \"#utility.yul\":3127:3151   */\n      tag_99\n      jump\t// in\n    tag_170:\n        /* \"#utility.yul\":3122:3125   */\n      dup3\n        /* \"#utility.yul\":3115:3152   */\n      mstore\n        /* \"#utility.yul\":3040:3158   */\n      pop\n      pop\n      jump\t// out\n        /* \"#utility.yul\":3164:3386   */\n    tag_23:\n        /* \"#utility.yul\":3257:3261   */\n      0x00\n        /* \"#utility.yul\":3295:3297   */\n      0x20\n        /* \"#utility.yul\":3284:3293   */\n      dup3\n        /* \"#utility.yul\":3280:3298   */\n      add\n        /* \"#utility.yul\":3272:3298   */\n      swap1\n      pop\n        /* \"#utility.yul\":3308:3379   */\n      tag_172\n        /* \"#utility.yul\":3376:3377   */\n      0x00\n        /* \"#utility.yul\":3365:3374   */\n      dup4\n        /* \"#utility.yul\":3361:3378   */\n      add\n        /* \"#utility.yul\":3352:3358   */\n      dup5\n        /* \"#utility.yul\":3308:3379   */\n      tag_100\n      jump\t// in\n    tag_172:\n        /* \"#utility.yul\":3164:3386   */\n      swap3\n      swap2\n      pop\n      pop\n      jump\t// out\n        /* \"#utility.yul\":3392:3535   */\n    tag_101:\n        /* \"#utility.yul\":3488:3494   */\n      0x00\n        /* \"#utility.yul\":3522:3527   */\n      dup2\n        /* \"#utility.yul\":3516:3528   */\n      mload\n        /* \"#utility.yul\":3506:3528   */\n      swap1\n      pop\n        /* \"#utility.yul\":3392:3535   */\n      swap2\n      swap1\n      pop\n      jump\t// out\n        /* \"#utility.yul\":3541:3754   */\n    tag_102:\n        /* \"#utility.yul\":3669:3680   */\n      0x00\n        /* \"#utility.yul\":3703:3709   */\n      dup3\n        /* \"#utility.yul\":3698:3701   */\n      dup3\n        /* \"#utility.yul\":3691:3710   */\n      mstore\n        /* \"#utility.yul\":3743:3747   */\n      0x20\n        /* \"#utility.yul\":3738:3741   */\n      dup3\n        /* \"#utility.yul\":3734:3748   */\n      add\n        /* \"#utility.yul\":3719:3748   */\n      swap1\n      pop\n        /* \"#utility.yul\":3541:3754   */\n      swap3\n      swap2\n      pop\n      pop\n      jump\t// out\n        /* \"#utility.yul\":3760:3921   */\n    tag_103:\n        /* \"#utility.yul\":3856:3860   */\n      0x00\n        /* \"#utility.yul\":3879:3882   */\n      dup2\n        /* \"#utility.yul\":3871:3882   */\n      swap1\n      pop\n        /* \"#utility.yul\":3909:3913   */\n      0x20\n        /* \"#utility.yul\":3904:3907   */\n      dup3\n        /* \"#utility.yul\":3900:3914   */\n      add\n        /* \"#utility.yul\":3892:3914   */\n      swap1\n      pop\n        /* \"#utility.yul\":3760:3921   */\n      swap2\n      swap1\n      pop\n      jump\t// out\n        /* \"#utility.yul\":3927:4035   */\n    tag_104:\n        /* \"#utility.yul\":4004:4028   */\n      tag_177\n        /* \"#utility.yul\":4022:4027   */\n      dup2\n        /* \"#utility.yul\":4004:4028   */\n      tag_89\n      jump\t// in\n    tag_177:\n        /* \"#utility.yul\":3999:4002   */\n      dup3\n        /* \"#utility.yul\":3992:4029   */\n      mstore\n        /* \"#utility.yul\":3927:4035   */\n      pop\n      pop\n      jump\t// out\n        /* \"#utility.yul\":4041:4200   */\n    tag_105:\n        /* \"#utility.yul\":4115:4126   */\n      0x00\n        /* \"#utility.yul\":4149:4155   */\n      dup3\n        /* \"#utility.yul\":4144:4147   */\n      dup3\n        /* \"#utility.yul\":4137:4156   */\n      mstore\n        /* \"#utility.yul\":4189:4193   */\n      0x20\n        /* \"#utility.yul\":4184:4187   */\n      dup3\n        /* \"#utility.yul\":4180:4194   */\n      add\n        /* \"#utility.yul\":4165:4194   */\n      swap1\n      pop\n        /* \"#utility.yul\":4041:4200   */\n      swap3\n      swap2\n      pop\n      pop\n      jump\t// out\n        /* \"#utility.yul\":4206:4563   */\n    tag_106:\n        /* \"#utility.yul\":4284:4287   */\n      0x00\n        /* \"#utility.yul\":4312:4351   */\n      tag_180\n        /* \"#utility.yul\":4345:4350   */\n      dup3\n        /* \"#utility.yul\":4312:4351   */\n      tag_93\n      jump\t// in\n    tag_180:\n        /* \"#utility.yul\":4367:4428   */\n      tag_181\n        /* \"#utility.yul\":4421:4427   */\n      dup2\n        /* \"#utility.yul\":4416:4419   */\n      dup6\n        /* \"#utility.yul\":4367:4428   */\n      tag_105\n      jump\t// in\n    tag_181:\n        /* \"#utility.yul\":4360:4428   */\n      swap4\n      pop\n        /* \"#utility.yul\":4437:4502   */\n      tag_182\n        /* \"#utility.yul\":4495:4501   */\n      dup2\n        /* \"#utility.yul\":4490:4493   */\n      dup6\n        /* \"#utility.yul\":4483:4487   */\n      0x20\n        /* \"#utility.yul\":4476:4481   */\n      dup7\n        /* \"#utility.yul\":4472:4488   */\n      add\n        /* \"#utility.yul\":4437:4502   */\n      tag_95\n      jump\t// in\n    tag_182:\n        /* \"#utility.yul\":4527:4556   */\n      tag_183\n        /* \"#utility.yul\":4549:4555   */\n      dup2\n        /* \"#utility.yul\":4527:4556   */\n      tag_96\n      jump\t// in\n    tag_183:\n        /* \"#utility.yul\":4522:4525   */\n      dup5\n        /* \"#utility.yul\":4518:4557   */\n      add\n        /* \"#utility.yul\":4511:4557   */\n      swap2\n      pop\n        /* \"#utility.yul\":4288:4563   */\n      pop\n        /* \"#utility.yul\":4206:4563   */\n      swap3\n      swap2\n      pop\n      pop\n      jump\t// out\n        /* \"#utility.yul\":4653:5677   */\n    tag_107:\n        /* \"#utility.yul\":4770:4773   */\n      0x00\n        /* \"#utility.yul\":4806:4810   */\n      0x80\n        /* \"#utility.yul\":4801:4804   */\n      dup4\n        /* \"#utility.yul\":4797:4811   */\n      add\n        /* \"#utility.yul\":4891:4895   */\n      0x00\n        /* \"#utility.yul\":4884:4889   */\n      dup4\n        /* \"#utility.yul\":4880:4896   */\n      add\n        /* \"#utility.yul\":4874:4897   */\n      mload\n        /* \"#utility.yul\":4910:4973   */\n      tag_185\n        /* \"#utility.yul\":4967:4971   */\n      0x00\n        /* \"#utility.yul\":4962:4965   */\n      dup7\n        /* \"#utility.yul\":4958:4972   */\n      add\n        /* \"#utility.yul\":4944:4956   */\n      dup3\n        /* \"#utility.yul\":4910:4973   */\n      tag_104\n      jump\t// in\n    tag_185:\n        /* \"#utility.yul\":4821:4983   */\n      pop\n        /* \"#utility.yul\":5066:5070   */\n      0x20\n        /* \"#utility.yul\":5059:5064   */\n      dup4\n        /* \"#utility.yul\":5055:5071   */\n      add\n        /* \"#utility.yul\":5049:5072   */\n      mload\n        /* \"#utility.yul\":5119:5122   */\n      dup5\n        /* \"#utility.yul\":5113:5117   */\n      dup3\n        /* \"#utility.yul\":5109:5123   */\n      sub\n        /* \"#utility.yul\":5102:5106   */\n      0x20\n        /* \"#utility.yul\":5097:5100   */\n      dup7\n        /* \"#utility.yul\":5093:5107   */\n      add\n        /* \"#utility.yul\":5086:5124   */\n      mstore\n        /* \"#utility.yul\":5145:5218   */\n      tag_186\n        /* \"#utility.yul\":5213:5217   */\n      dup3\n        /* \"#utility.yul\":5199:5211   */\n      dup3\n        /* \"#utility.yul\":5145:5218   */\n      tag_106\n      jump\t// in\n    tag_186:\n        /* \"#utility.yul\":5137:5218   */\n      swap2\n      pop\n        /* \"#utility.yul\":4993:5229   */\n      pop\n        /* \"#utility.yul\":5312:5316   */\n      0x40\n        /* \"#utility.yul\":5305:5310   */\n      dup4\n        /* \"#utility.yul\":5301:5317   */\n      add\n        /* \"#utility.yul\":5295:5318   */\n      mload\n        /* \"#utility.yul\":5365:5368   */\n      dup5\n        /* \"#utility.yul\":5359:5363   */\n      dup3\n        /* \"#utility.yul\":5355:5369   */\n      sub\n        /* \"#utility.yul\":5348:5352   */\n      0x40\n        /* \"#utility.yul\":5343:5346   */\n      dup7\n        /* \"#utility.yul\":5339:5353   */\n      add\n        /* \"#utility.yul\":5332:5370   */\n      mstore\n        /* \"#utility.yul\":5391:5464   */\n      tag_187\n        /* \"#utility.yul\":5459:5463   */\n      dup3\n        /* \"#utility.yul\":5445:5457   */\n      dup3\n        /* \"#utility.yul\":5391:5464   */\n      tag_106\n      jump\t// in\n    tag_187:\n        /* \"#utility.yul\":5383:5464   */\n      swap2\n      pop\n        /* \"#utility.yul\":5239:5475   */\n      pop\n        /* \"#utility.yul\":5558:5562   */\n      0x60\n        /* \"#utility.yul\":5551:5556   */\n      dup4\n        /* \"#utility.yul\":5547:5563   */\n      add\n        /* \"#utility.yul\":5541:5564   */\n      mload\n        /* \"#utility.yul\":5577:5640   */\n      tag_188\n        /* \"#utility.yul\":5634:5638   */\n      0x60\n        /* \"#utility.yul\":5629:5632   */\n      dup7\n        /* \"#utility.yul\":5625:5639   */\n      add\n        /* \"#utility.yul\":5611:5623   */\n      dup3\n        /* \"#utility.yul\":5577:5640   */\n      tag_104\n      jump\t// in\n    tag_188:\n        /* \"#utility.yul\":5485:5650   */\n      pop\n        /* \"#utility.yul\":5667:5671   */\n      dup1\n        /* \"#utility.yul\":5660:5671   */\n      swap2\n      pop\n        /* \"#utility.yul\":4775:5677   */\n      pop\n        /* \"#utility.yul\":4653:5677   */\n      swap3\n      swap2\n      pop\n      pop\n      jump\t// out\n        /* \"#utility.yul\":5683:5955   */\n    tag_108:\n        /* \"#utility.yul\":5810:5820   */\n      0x00\n        /* \"#utility.yul\":5845:5949   */\n      tag_190\n        /* \"#utility.yul\":5945:5948   */\n      dup4\n        /* \"#utility.yul\":5937:5943   */\n      dup4\n        /* \"#utility.yul\":5845:5949   */\n      tag_107\n      jump\t// in\n    tag_190:\n        /* \"#utility.yul\":5831:5949   */\n      swap1\n      pop\n        /* \"#utility.yul\":5683:5955   */\n      swap3\n      swap2\n      pop\n      pop\n      jump\t// out\n        /* \"#utility.yul\":5961:6103   */\n    tag_109:\n        /* \"#utility.yul\":6060:6064   */\n      0x00\n        /* \"#utility.yul\":6092:6096   */\n      0x20\n        /* \"#utility.yul\":6087:6090   */\n      dup3\n        /* \"#utility.yul\":6083:6097   */\n      add\n        /* \"#utility.yul\":6075:6097   */\n      swap1\n      pop\n        /* \"#utility.yul\":5961:6103   */\n      swap2\n      swap1\n      pop\n      jump\t// out\n        /* \"#utility.yul\":6197:7340   */\n    tag_110:\n        /* \"#utility.yul\":6374:6377   */\n      0x00\n        /* \"#utility.yul\":6403:6486   */\n      tag_193\n        /* \"#utility.yul\":6480:6485   */\n      dup3\n        /* \"#utility.yul\":6403:6486   */\n      tag_101\n      jump\t// in\n    tag_193:\n        /* \"#utility.yul\":6502:6617   */\n      tag_194\n        /* \"#utility.yul\":6610:6616   */\n      dup2\n        /* \"#utility.yul\":6605:6608   */\n      dup6\n        /* \"#utility.yul\":6502:6617   */\n      tag_102\n      jump\t// in\n    tag_194:\n        /* \"#utility.yul\":6495:6617   */\n      swap4\n      pop\n        /* \"#utility.yul\":6643:6646   */\n      dup4\n        /* \"#utility.yul\":6688:6692   */\n      0x20\n        /* \"#utility.yul\":6680:6686   */\n      dup3\n        /* \"#utility.yul\":6676:6693   */\n      mul\n        /* \"#utility.yul\":6671:6674   */\n      dup6\n        /* \"#utility.yul\":6667:6694   */\n      add\n        /* \"#utility.yul\":6718:6803   */\n      tag_195\n        /* \"#utility.yul\":6797:6802   */\n      dup6\n        /* \"#utility.yul\":6718:6803   */\n      tag_103\n      jump\t// in\n    tag_195:\n        /* \"#utility.yul\":6826:6833   */\n      dup1\n        /* \"#utility.yul\":6857:6858   */\n      0x00\n        /* \"#utility.yul\":6842:7295   */\n    tag_196:\n        /* \"#utility.yul\":6867:6873   */\n      dup6\n        /* \"#utility.yul\":6864:6865   */\n      dup2\n        /* \"#utility.yul\":6861:6874   */\n      lt\n        /* \"#utility.yul\":6842:7295   */\n      iszero\n      tag_198\n      jumpi\n        /* \"#utility.yul\":6938:6947   */\n      dup5\n        /* \"#utility.yul\":6932:6936   */\n      dup5\n        /* \"#utility.yul\":6928:6948   */\n      sub\n        /* \"#utility.yul\":6923:6926   */\n      dup10\n        /* \"#utility.yul\":6916:6949   */\n      mstore\n        /* \"#utility.yul\":6989:6995   */\n      dup2\n        /* \"#utility.yul\":6983:6996   */\n      mload\n        /* \"#utility.yul\":7017:7139   */\n      tag_199\n        /* \"#utility.yul\":7134:7138   */\n      dup6\n        /* \"#utility.yul\":7119:7132   */\n      dup3\n        /* \"#utility.yul\":7017:7139   */\n      tag_108\n      jump\t// in\n    tag_199:\n        /* \"#utility.yul\":7009:7139   */\n      swap5\n      pop\n        /* \"#utility.yul\":7162:7251   */\n      tag_200\n        /* \"#utility.yul\":7244:7250   */\n      dup4\n        /* \"#utility.yul\":7162:7251   */\n      tag_109\n      jump\t// in\n    tag_200:\n        /* \"#utility.yul\":7152:7251   */\n      swap3\n      pop\n        /* \"#utility.yul\":7280:7284   */\n      0x20\n        /* \"#utility.yul\":7275:7278   */\n      dup11\n        /* \"#utility.yul\":7271:7285   */\n      add\n        /* \"#utility.yul\":7264:7285   */\n      swap10\n      pop\n        /* \"#utility.yul\":6902:7295   */\n      pop\n        /* \"#utility.yul\":6889:6890   */\n      0x01\n        /* \"#utility.yul\":6886:6887   */\n      dup2\n        /* \"#utility.yul\":6882:6891   */\n      add\n        /* \"#utility.yul\":6877:6891   */\n      swap1\n      pop\n        /* \"#utility.yul\":6842:7295   */\n      jump(tag_196)\n    tag_198:\n        /* \"#utility.yul\":6846:6860   */\n      pop\n        /* \"#utility.yul\":7311:7315   */\n      dup3\n        /* \"#utility.yul\":7304:7315   */\n      swap8\n      pop\n        /* \"#utility.yul\":7331:7334   */\n      dup8\n        /* \"#utility.yul\":7324:7334   */\n      swap6\n      pop\n        /* \"#utility.yul\":6379:7340   */\n      pop\n      pop\n      pop\n      pop\n      pop\n        /* \"#utility.yul\":6197:7340   */\n      swap3\n      swap2\n      pop\n      pop\n      jump\t// out\n        /* \"#utility.yul\":7346:7835   */\n    tag_28:\n        /* \"#utility.yul\":7547:7551   */\n      0x00\n        /* \"#utility.yul\":7585:7587   */\n      0x20\n        /* \"#utility.yul\":7574:7583   */\n      dup3\n        /* \"#utility.yul\":7570:7588   */\n      add\n        /* \"#utility.yul\":7562:7588   */\n      swap1\n      pop\n        /* \"#utility.yul\":7634:7643   */\n      dup2\n        /* \"#utility.yul\":7628:7632   */\n      dup2\n        /* \"#utility.yul\":7624:7644   */\n      sub\n        /* \"#utility.yul\":7620:7621   */\n      0x00\n        /* \"#utility.yul\":7609:7618   */\n      dup4\n        /* \"#utility.yul\":7605:7622   */\n      add\n        /* \"#utility.yul\":7598:7645   */\n      mstore\n        /* \"#utility.yul\":7662:7828   */\n      tag_202\n        /* \"#utility.yul\":7823:7827   */\n      dup2\n        /* \"#utility.yul\":7814:7820   */\n      dup5\n        /* \"#utility.yul\":7662:7828   */\n      tag_110\n      jump\t// in\n    tag_202:\n        /* \"#utility.yul\":7654:7828   */\n      swap1\n      pop\n        /* \"#utility.yul\":7346:7835   */\n      swap3\n      swap2\n      pop\n      pop\n      jump\t// out\n        /* \"#utility.yul\":7841:7958   */\n    tag_111:\n        /* \"#utility.yul\":7950:7951   */\n      0x00\n        /* \"#utility.yul\":7947:7948   */\n      0x00\n        /* \"#utility.yul\":7940:7952   */\n      revert\n        /* \"#utility.yul\":7964:8081   */\n    tag_112:\n        /* \"#utility.yul\":8073:8074   */\n      0x00\n        /* \"#utility.yul\":8070:8071   */\n      0x00\n        /* \"#utility.yul\":8063:8075   */\n      revert\n        /* \"#utility.yul\":8087:8267   */\n    tag_55:\n        /* \"#utility.yul\":8135:8212   */\n      0x4e487b7100000000000000000000000000000000000000000000000000000000\n        /* \"#utility.yul\":8132:8133   */\n      0x00\n        /* \"#utility.yul\":8125:8213   */\n      mstore\n        /* \"#utility.yul\":8232:8236   */\n      0x41\n        /* \"#utility.yul\":8229:8230   */\n      0x04\n        /* \"#utility.yul\":8222:8237   */\n      mstore\n        /* \"#utility.yul\":8256:8260   */\n      0x24\n        /* \"#utility.yul\":8253:8254   */\n      0x00\n        /* \"#utility.yul\":8246:8261   */\n      revert\n        /* \"#utility.yul\":8273:8554   */\n    tag_113:\n        /* \"#utility.yul\":8356:8383   */\n      tag_207\n        /* \"#utility.yul\":8378:8382   */\n      dup3\n        /* \"#utility.yul\":8356:8383   */\n      tag_96\n      jump\t// in\n    tag_207:\n        /* \"#utility.yul\":8348:8354   */\n      dup2\n        /* \"#utility.yul\":8344:8384   */\n      add\n        /* \"#utility.yul\":8486:8492   */\n      dup2\n        /* \"#utility.yul\":8474:8484   */\n      dup2\n        /* \"#utility.yul\":8471:8493   */\n      lt\n        /* \"#utility.yul\":8450:8468   */\n      0xffffffffffffffff\n        /* \"#utility.yul\":8438:8448   */\n      dup3\n        /* \"#utility.yul\":8435:8469   */\n      gt\n        /* \"#utility.yul\":8432:8494   */\n      or\n        /* \"#utility.yul\":8429:8517   */\n      iszero\n      tag_208\n      jumpi\n        /* \"#utility.yul\":8497:8515   */\n      tag_209\n      tag_55\n      jump\t// in\n    tag_209:\n        /* \"#utility.yul\":8429:8517   */\n    tag_208:\n        /* \"#utility.yul\":8537:8547   */\n      dup1\n        /* \"#utility.yul\":8533:8535   */\n      0x40\n        /* \"#utility.yul\":8526:8548   */\n      mstore\n        /* \"#utility.yul\":8316:8554   */\n      pop\n        /* \"#utility.yul\":8273:8554   */\n      pop\n      pop\n      jump\t// out\n        /* \"#utility.yul\":8560:8689   */\n    tag_114:\n        /* \"#utility.yul\":8594:8600   */\n      0x00\n        /* \"#utility.yul\":8621:8641   */\n      tag_211\n      tag_86\n      jump\t// in\n    tag_211:\n        /* \"#utility.yul\":8611:8641   */\n      swap1\n      pop\n        /* \"#utility.yul\":8650:8683   */\n      tag_212\n        /* \"#utility.yul\":8678:8682   */\n      dup3\n        /* \"#utility.yul\":8670:8676   */\n      dup3\n        /* \"#utility.yul\":8650:8683   */\n      tag_113\n      jump\t// in\n    tag_212:\n        /* \"#utility.yul\":8560:8689   */\n      swap2\n      swap1\n      pop\n      jump\t// out\n        /* \"#utility.yul\":8695:9003   */\n    tag_115:\n        /* \"#utility.yul\":8757:8761   */\n      0x00\n        /* \"#utility.yul\":8847:8865   */\n      0xffffffffffffffff\n        /* \"#utility.yul\":8839:8845   */\n      dup3\n        /* \"#utility.yul\":8836:8866   */\n      gt\n        /* \"#utility.yul\":8833:8889   */\n      iszero\n      tag_214\n      jumpi\n        /* \"#utility.yul\":8869:8887   */\n      tag_215\n      tag_55\n      jump\t// in\n    tag_215:\n        /* \"#utility.yul\":8833:8889   */\n    tag_214:\n        /* \"#utility.yul\":8907:8936   */\n      tag_216\n        /* \"#utility.yul\":8929:8935   */\n      dup3\n        /* \"#utility.yul\":8907:8936   */\n      tag_96\n      jump\t// in\n    tag_216:\n        /* \"#utility.yul\":8899:8936   */\n      swap1\n      pop\n        /* \"#utility.yul\":8991:8995   */\n      0x20\n        /* \"#utility.yul\":8985:8989   */\n      dup2\n        /* \"#utility.yul\":8981:8996   */\n      add\n        /* \"#utility.yul\":8973:8996   */\n      swap1\n      pop\n        /* \"#utility.yul\":8695:9003   */\n      swap2\n      swap1\n      pop\n      jump\t// out\n        /* \"#utility.yul\":9009:9157   */\n    tag_116:\n        /* \"#utility.yul\":9107:9113   */\n      dup3\n        /* \"#utility.yul\":9102:9105   */\n      dup2\n        /* \"#utility.yul\":9097:9100   */\n      dup4\n        /* \"#utility.yul\":9084:9114   */\n      calldatacopy\n        /* \"#utility.yul\":9148:9149   */\n      0x00\n        /* \"#utility.yul\":9139:9145   */\n      dup4\n        /* \"#utility.yul\":9134:9137   */\n      dup4\n        /* \"#utility.yul\":9130:9146   */\n      add\n        /* \"#utility.yul\":9123:9150   */\n      mstore\n        /* \"#utility.yul\":9009:9157   */\n      pop\n      pop\n      pop\n      jump\t// out\n        /* \"#utility.yul\":9163:9588   */\n    tag_117:\n        /* \"#utility.yul\":9241:9246   */\n      0x00\n        /* \"#utility.yul\":9266:9332   */\n      tag_219\n        /* \"#utility.yul\":9282:9331   */\n      tag_220\n        /* \"#utility.yul\":9324:9330   */\n      dup5\n        /* \"#utility.yul\":9282:9331   */\n      tag_115\n      jump\t// in\n    tag_220:\n        /* \"#utility.yul\":9266:9332   */\n      tag_114\n      jump\t// in\n    tag_219:\n        /* \"#utility.yul\":9257:9332   */\n      swap1\n      pop\n        /* \"#utility.yul\":9355:9361   */\n      dup3\n        /* \"#utility.yul\":9348:9353   */\n      dup2\n        /* \"#utility.yul\":9341:9362   */\n      mstore\n        /* \"#utility.yul\":9393:9397   */\n      0x20\n        /* \"#utility.yul\":9386:9391   */\n      dup2\n        /* \"#utility.yul\":9382:9398   */\n      add\n        /* \"#utility.yul\":9431:9434   */\n      dup5\n        /* \"#utility.yul\":9422:9428   */\n      dup5\n        /* \"#utility.yul\":9417:9420   */\n      dup5\n        /* \"#utility.yul\":9413:9429   */\n      add\n        /* \"#utility.yul\":9410:9435   */\n      gt\n        /* \"#utility.yul\":9407:9519   */\n      iszero\n      tag_221\n      jumpi\n        /* \"#utility.yul\":9438:9517   */\n      tag_222\n      tag_112\n      jump\t// in\n    tag_222:\n        /* \"#utility.yul\":9407:9519   */\n    tag_221:\n        /* \"#utility.yul\":9528:9582   */\n      tag_223\n        /* \"#utility.yul\":9575:9581   */\n      dup5\n        /* \"#utility.yul\":9570:9573   */\n      dup3\n        /* \"#utility.yul\":9565:9568   */\n      dup6\n        /* \"#utility.yul\":9528:9582   */\n      tag_116\n      jump\t// in\n    tag_223:\n        /* \"#utility.yul\":9247:9588   */\n      pop\n        /* \"#utility.yul\":9163:9588   */\n      swap4\n      swap3\n      pop\n      pop\n      pop\n      jump\t// out\n        /* \"#utility.yul\":9608:9948   */\n    tag_118:\n        /* \"#utility.yul\":9664:9669   */\n      0x00\n        /* \"#utility.yul\":9713:9716   */\n      dup3\n        /* \"#utility.yul\":9706:9710   */\n      0x1f\n        /* \"#utility.yul\":9698:9704   */\n      dup4\n        /* \"#utility.yul\":9694:9711   */\n      add\n        /* \"#utility.yul\":9690:9717   */\n      slt\n        /* \"#utility.yul\":9680:9802   */\n      tag_225\n      jumpi\n        /* \"#utility.yul\":9721:9800   */\n      tag_226\n      tag_111\n      jump\t// in\n    tag_226:\n        /* \"#utility.yul\":9680:9802   */\n    tag_225:\n        /* \"#utility.yul\":9838:9844   */\n      dup2\n        /* \"#utility.yul\":9825:9845   */\n      calldataload\n        /* \"#utility.yul\":9863:9942   */\n      tag_227\n        /* \"#utility.yul\":9938:9941   */\n      dup5\n        /* \"#utility.yul\":9930:9936   */\n      dup3\n        /* \"#utility.yul\":9923:9927   */\n      0x20\n        /* \"#utility.yul\":9915:9921   */\n      dup7\n        /* \"#utility.yul\":9911:9928   */\n      add\n        /* \"#utility.yul\":9863:9942   */\n      tag_117\n      jump\t// in\n    tag_227:\n        /* \"#utility.yul\":9854:9942   */\n      swap2\n      pop\n        /* \"#utility.yul\":9670:9948   */\n      pop\n        /* \"#utility.yul\":9608:9948   */\n      swap3\n      swap2\n      pop\n      pop\n      jump\t// out\n        /* \"#utility.yul\":9954:11079   */\n    tag_32:\n        /* \"#utility.yul\":10060:10066   */\n      0x00\n        /* \"#utility.yul\":10068:10074   */\n      0x00\n        /* \"#utility.yul\":10076:10082   */\n      0x00\n        /* \"#utility.yul\":10084:10090   */\n      0x00\n        /* \"#utility.yul\":10133:10136   */\n      0x80\n        /* \"#utility.yul\":10121:10130   */\n      dup6\n        /* \"#utility.yul\":10112:10119   */\n      dup8\n        /* \"#utility.yul\":10108:10131   */\n      sub\n        /* \"#utility.yul\":10104:10137   */\n      slt\n        /* \"#utility.yul\":10101:10221   */\n      iszero\n      tag_229\n      jumpi\n        /* \"#utility.yul\":10140:10219   */\n      tag_230\n      tag_87\n      jump\t// in\n    tag_230:\n        /* \"#utility.yul\":10101:10221   */\n    tag_229:\n        /* \"#utility.yul\":10260:10261   */\n      0x00\n        /* \"#utility.yul\":10285:10338   */\n      tag_231\n        /* \"#utility.yul\":10330:10337   */\n      dup8\n        /* \"#utility.yul\":10321:10327   */\n      dup3\n        /* \"#utility.yul\":10310:10319   */\n      dup9\n        /* \"#utility.yul\":10306:10328   */\n      add\n        /* \"#utility.yul\":10285:10338   */\n      tag_91\n      jump\t// in\n    tag_231:\n        /* \"#utility.yul\":10275:10338   */\n      swap5\n      pop\n        /* \"#utility.yul\":10231:10348   */\n      pop\n        /* \"#utility.yul\":10415:10417   */\n      0x20\n        /* \"#utility.yul\":10404:10413   */\n      dup6\n        /* \"#utility.yul\":10400:10418   */\n      add\n        /* \"#utility.yul\":10387:10419   */\n      calldataload\n        /* \"#utility.yul\":10446:10464   */\n      0xffffffffffffffff\n        /* \"#utility.yul\":10438:10444   */\n      dup2\n        /* \"#utility.yul\":10435:10465   */\n      gt\n        /* \"#utility.yul\":10432:10549   */\n      iszero\n      tag_232\n      jumpi\n        /* \"#utility.yul\":10468:10547   */\n      tag_233\n      tag_88\n      jump\t// in\n    tag_233:\n        /* \"#utility.yul\":10432:10549   */\n    tag_232:\n        /* \"#utility.yul\":10573:10636   */\n      tag_234\n        /* \"#utility.yul\":10628:10635   */\n      dup8\n        /* \"#utility.yul\":10619:10625   */\n      dup3\n        /* \"#utility.yul\":10608:10617   */\n      dup9\n        /* \"#utility.yul\":10604:10626   */\n      add\n        /* \"#utility.yul\":10573:10636   */\n      tag_118\n      jump\t// in\n    tag_234:\n        /* \"#utility.yul\":10563:10636   */\n      swap4\n      pop\n        /* \"#utility.yul\":10358:10646   */\n      pop\n        /* \"#utility.yul\":10713:10715   */\n      0x40\n        /* \"#utility.yul\":10702:10711   */\n      dup6\n        /* \"#utility.yul\":10698:10716   */\n      add\n        /* \"#utility.yul\":10685:10717   */\n      calldataload\n        /* \"#utility.yul\":10744:10762   */\n      0xffffffffffffffff\n        /* \"#utility.yul\":10736:10742   */\n      dup2\n        /* \"#utility.yul\":10733:10763   */\n      gt\n        /* \"#utility.yul\":10730:10847   */\n      iszero\n      tag_235\n      jumpi\n        /* \"#utility.yul\":10766:10845   */\n      tag_236\n      tag_88\n      jump\t// in\n    tag_236:\n        /* \"#utility.yul\":10730:10847   */\n    tag_235:\n        /* \"#utility.yul\":10871:10934   */\n      tag_237\n        /* \"#utility.yul\":10926:10933   */\n      dup8\n        /* \"#utility.yul\":10917:10923   */\n      dup3\n        /* \"#utility.yul\":10906:10915   */\n      dup9\n        /* \"#utility.yul\":10902:10924   */\n      add\n        /* \"#utility.yul\":10871:10934   */\n      tag_118\n      jump\t// in\n    tag_237:\n        /* \"#utility.yul\":10861:10934   */\n      swap3\n      pop\n        /* \"#utility.yul\":10656:10944   */\n      pop\n        /* \"#utility.yul\":10983:10985   */\n      0x60\n        /* \"#utility.yul\":11009:11062   */\n      tag_238\n        /* \"#utility.yul\":11054:11061   */\n      dup8\n        /* \"#utility.yul\":11045:11051   */\n      dup3\n        /* \"#utility.yul\":11034:11043   */\n      dup9\n        /* \"#utility.yul\":11030:11052   */\n      add\n        /* \"#utility.yul\":11009:11062   */\n      tag_91\n      jump\t// in\n    tag_238:\n        /* \"#utility.yul\":10999:11062   */\n      swap2\n      pop\n        /* \"#utility.yul\":10954:11072   */\n      pop\n        /* \"#utility.yul\":9954:11079   */\n      swap3\n      swap6\n      swap2\n      swap5\n      pop\n      swap3\n      pop\n      jump\t// out\n        /* \"#utility.yul\":11085:11307   */\n    tag_38:\n        /* \"#utility.yul\":11178:11182   */\n      0x00\n        /* \"#utility.yul\":11216:11218   */\n      0x20\n        /* \"#utility.yul\":11205:11214   */\n      dup3\n        /* \"#utility.yul\":11201:11219   */\n      add\n        /* \"#utility.yul\":11193:11219   */\n      swap1\n      pop\n        /* \"#utility.yul\":11229:11300   */\n      tag_240\n        /* \"#utility.yul\":11297:11298   */\n      0x00\n        /* \"#utility.yul\":11286:11295   */\n      dup4\n        /* \"#utility.yul\":11282:11299   */\n      add\n        /* \"#utility.yul\":11273:11279   */\n      dup5\n        /* \"#utility.yul\":11229:11300   */\n      tag_92\n      jump\t// in\n    tag_240:\n        /* \"#utility.yul\":11085:11307   */\n      swap3\n      swap2\n      pop\n      pop\n      jump\t// out\n        /* \"#utility.yul\":11313:11493   */\n    tag_119:\n        /* \"#utility.yul\":11361:11438   */\n      0x4e487b7100000000000000000000000000000000000000000000000000000000\n        /* \"#utility.yul\":11358:11359   */\n      0x00\n        /* \"#utility.yul\":11351:11439   */\n      mstore\n        /* \"#utility.yul\":11458:11462   */\n      0x22\n        /* \"#utility.yul\":11455:11456   */\n      0x04\n        /* \"#utility.yul\":11448:11463   */\n      mstore\n        /* \"#utility.yul\":11482:11486   */\n      0x24\n        /* \"#utility.yul\":11479:11480   */\n      0x00\n        /* \"#utility.yul\":11472:11487   */\n      revert\n        /* \"#utility.yul\":11499:11819   */\n    tag_42:\n        /* \"#utility.yul\":11543:11549   */\n      0x00\n        /* \"#utility.yul\":11580:11581   */\n      0x02\n        /* \"#utility.yul\":11574:11578   */\n      dup3\n        /* \"#utility.yul\":11570:11582   */\n      div\n        /* \"#utility.yul\":11560:11582   */\n      swap1\n      pop\n        /* \"#utility.yul\":11627:11628   */\n      0x01\n        /* \"#utility.yul\":11621:11625   */\n      dup3\n        /* \"#utility.yul\":11617:11629   */\n      and\n        /* \"#utility.yul\":11648:11666   */\n      dup1\n        /* \"#utility.yul\":11638:11719   */\n      tag_243\n      jumpi\n        /* \"#utility.yul\":11704:11708   */\n      0x7f\n        /* \"#utility.yul\":11696:11702   */\n      dup3\n        /* \"#utility.yul\":11692:11709   */\n      and\n        /* \"#utility.yul\":11682:11709   */\n      swap2\n      pop\n        /* \"#utility.yul\":11638:11719   */\n    tag_243:\n        /* \"#utility.yul\":11766:11768   */\n      0x20\n        /* \"#utility.yul\":11758:11764   */\n      dup3\n        /* \"#utility.yul\":11755:11769   */\n      lt\n        /* \"#utility.yul\":11735:11753   */\n      dup2\n        /* \"#utility.yul\":11732:11770   */\n      sub\n        /* \"#utility.yul\":11729:11813   */\n      tag_244\n      jumpi\n        /* \"#utility.yul\":11785:11803   */\n      tag_245\n      tag_119\n      jump\t// in\n    tag_245:\n        /* \"#utility.yul\":11729:11813   */\n    tag_244:\n        /* \"#utility.yul\":11550:11819   */\n      pop\n        /* \"#utility.yul\":11499:11819   */\n      swap2\n      swap1\n      pop\n      jump\t// out\n        /* \"#utility.yul\":11825:12005   */\n    tag_65:\n        /* \"#utility.yul\":11873:11950   */\n      0x4e487b7100000000000000000000000000000000000000000000000000000000\n        /* \"#utility.yul\":11870:11871   */\n      0x00\n        /* \"#utility.yul\":11863:11951   */\n      mstore\n        /* \"#utility.yul\":11970:11974   */\n      0x32\n        /* \"#utility.yul\":11967:11968   */\n      0x04\n        /* \"#utility.yul\":11960:11975   */\n      mstore\n        /* \"#utility.yul\":11994:11998   */\n      0x24\n        /* \"#utility.yul\":11991:11992   */\n      0x00\n        /* \"#utility.yul\":11984:11999   */\n      revert\n        /* \"#utility.yul\":12011:12191   */\n    tag_120:\n        /* \"#utility.yul\":12059:12136   */\n      0x4e487b7100000000000000000000000000000000000000000000000000000000\n        /* \"#utility.yul\":12056:12057   */\n      0x00\n        /* \"#utility.yul\":12049:12137   */\n      mstore\n        /* \"#utility.yul\":12156:12160   */\n      0x11\n        /* \"#utility.yul\":12153:12154   */\n      0x04\n        /* \"#utility.yul\":12146:12161   */\n      mstore\n        /* \"#utility.yul\":12180:12184   */\n      0x24\n        /* \"#utility.yul\":12177:12178   */\n      0x00\n        /* \"#utility.yul\":12170:12185   */\n      revert\n        /* \"#utility.yul\":12197:12430   */\n    tag_81:\n        /* \"#utility.yul\":12236:12239   */\n      0x00\n        /* \"#utility.yul\":12259:12283   */\n      tag_249\n        /* \"#utility.yul\":12277:12282   */\n      dup3\n        /* \"#utility.yul\":12259:12283   */\n      tag_89\n      jump\t// in\n    tag_249:\n        /* \"#utility.yul\":12250:12283   */\n      swap2\n      pop\n        /* \"#utility.yul\":12305:12371   */\n      0xffffffffffffffffffffffffffffffffffffffffffffffffffffffffffffffff\n        /* \"#utility.yul\":12298:12303   */\n      dup3\n        /* \"#utility.yul\":12295:12372   */\n      sub\n        /* \"#utility.yul\":12292:12395   */\n      tag_250\n      jumpi\n        /* \"#utility.yul\":12375:12393   */\n      tag_251\n      tag_120\n      jump\t// in\n    tag_251:\n        /* \"#utility.yul\":12292:12395   */\n    tag_250:\n        /* \"#utility.yul\":12422:12423   */\n      0x01\n        /* \"#utility.yul\":12415:12420   */\n      dup3\n        /* \"#utility.yul\":12411:12424   */\n      add\n        /* \"#utility.yul\":12404:12424   */\n      swap1\n      pop\n        /* \"#utility.yul\":12197:12430   */\n      swap2\n      swap1\n      pop\n      jump\t// out\n        /* \"#utility.yul\":12436:12577   */\n    tag_121:\n        /* \"#utility.yul\":12485:12489   */\n      0x00\n        /* \"#utility.yul\":12508:12511   */\n      dup2\n        /* \"#utility.yul\":12500:12511   */\n      swap1\n      pop\n        /* \"#utility.yul\":12531:12534   */\n      dup2\n        /* \"#utility.yul\":12528:12529   */\n      0x00\n        /* \"#utility.yul\":12521:12535   */\n      mstore\n        /* \"#utility.yul\":12565:12569   */\n      0x20\n        /* \"#utility.yul\":12562:12563   */\n      0x00\n        /* \"#utility.yul\":12552:12570   */\n      keccak256\n        /* \"#utility.yul\":12544:12570   */\n      swap1\n      pop\n        /* \"#utility.yul\":12436:12577   */\n      swap2\n      swap1\n      pop\n      jump\t// out\n        /* \"#utility.yul\":12583:12676   */\n    tag_122:\n        /* \"#utility.yul\":12620:12626   */\n      0x00\n        /* \"#utility.yul\":12667:12669   */\n      0x20\n        /* \"#utility.yul\":12662:12664   */\n      0x1f\n        /* \"#utility.yul\":12655:12660   */\n      dup4\n        /* \"#utility.yul\":12651:12665   */\n      add\n        /* \"#utility.yul\":12647:12670   */\n      div\n        /* \"#utility.yul\":12637:12670   */\n      swap1\n      pop\n        /* \"#utility.yul\":12583:12676   */\n      swap2\n      swap1\n      pop\n      jump\t// out\n        /* \"#utility.yul\":12682:12789   */\n    tag_123:\n        /* \"#utility.yul\":12726:12734   */\n      0x00\n        /* \"#utility.yul\":12776:12781   */\n      dup3\n        /* \"#utility.yul\":12770:12774   */\n      dup3\n        /* \"#utility.yul\":12766:12782   */\n      shl\n        /* \"#utility.yul\":12745:12782   */\n      swap1\n      pop\n        /* \"#utility.yul\":12682:12789   */\n      swap3\n      swap2\n      pop\n      pop\n      jump\t// out\n        /* \"#utility.yul\":12795:13188   */\n    tag_124:\n        /* \"#utility.yul\":12864:12870   */\n      0x00\n        /* \"#utility.yul\":12914:12915   */\n      0x08\n        /* \"#utility.yul\":12902:12912   */\n      dup4\n        /* \"#utility.yul\":12898:12916   */\n      mul\n        /* \"#utility.yul\":12937:13034   */\n      tag_256\n        /* \"#utility.yul\":12967:13033   */\n      0xffffffffffffffffffffffffffffffffffffffffffffffffffffffffffffffff\n        /* \"#utility.yul\":12956:12965   */\n      dup3\n        /* \"#utility.yul\":12937:13034   */\n      tag_123\n      jump\t// in\n    tag_256:\n        /* \"#utility.yul\":13055:13094   */\n      tag_257\n        /* \"#utility.yul\":13085:13093   */\n      dup7\n        /* \"#utility.yul\":13074:13083   */\n      dup4\n        /* \"#utility.yul\":13055:13094   */\n      tag_123\n      jump\t// in\n    tag_257:\n        /* \"#utility.yul\":13043:13094   */\n      swap6\n      pop\n        /* \"#utility.yul\":13127:13131   */\n      dup1\n        /* \"#utility.yul\":13123:13132   */\n      not\n        /* \"#utility.yul\":13116:13121   */\n      dup5\n        /* \"#utility.yul\":13112:13133   */\n      and\n        /* \"#utility.yul\":13103:13133   */\n      swap4\n      pop\n        /* \"#utility.yul\":13176:13180   */\n      dup1\n        /* \"#utility.yul\":13166:13174   */\n      dup7\n        /* \"#utility.yul\":13162:13181   */\n      and\n        /* \"#utility.yul\":13155:13160   */\n      dup5\n        /* \"#utility.yul\":13152:13182   */\n      or\n        /* \"#utility.yul\":13142:13182   */\n      swap3\n      pop\n        /* \"#utility.yul\":12871:13188   */\n      pop\n      pop\n        /* \"#utility.yul\":12795:13188   */\n      swap4\n      swap3\n      pop\n      pop\n      pop\n      jump\t// out\n        /* \"#utility.yul\":13194:13254   */\n    tag_125:\n        /* \"#utility.yul\":13222:13225   */\n      0x00\n        /* \"#utility.yul\":13243:13248   */\n      dup2\n        /* \"#utility.yul\":13236:13248   */\n      swap1\n      pop\n        /* \"#utility.yul\":13194:13254   */\n      swap2\n      swap1\n      pop\n      jump\t// out\n        /* \"#utility.yul\":13260:13402   */\n    tag_126:\n        /* \"#utility.yul\":13310:13319   */\n      0x00\n        /* \"#utility.yul\":13343:13396   */\n      tag_260\n        /* \"#utility.yul\":13361:13395   */\n      tag_261\n        /* \"#utility.yul\":13370:13394   */\n      tag_262\n        /* \"#utility.yul\":13388:13393   */\n      dup5\n        /* \"#utility.yul\":13370:13394   */\n      tag_89\n      jump\t// in\n    tag_262:\n        /* \"#utility.yul\":13361:13395   */\n      tag_125\n      jump\t// in\n    tag_261:\n        /* \"#utility.yul\":13343:13396   */\n      tag_89\n      jump\t// in\n    tag_260:\n        /* \"#utility.yul\":13330:13396   */\n      swap1\n      pop\n        /* \"#utility.yul\":13260:13402   */\n      swap2\n      swap1\n      pop\n      jump\t// out\n        /* \"#utility.yul\":13408:13483   */\n    tag_127:\n        /* \"#utility.yul\":13451:13454   */\n      0x00\n        /* \"#utility.yul\":13472:13477   */\n      dup2\n        /* \"#utility.yul\":13465:13477   */\n      swap1\n      pop\n        /* \"#utility.yul\":13408:13483   */\n      swap2\n      swap1\n      pop\n      jump\t// out\n        /* \"#utility.yul\":13489:13758   */\n    tag_128:\n        /* \"#utility.yul\":13599:13638   */\n      tag_265\n        /* \"#utility.yul\":13630:13637   */\n      dup4\n        /* \"#utility.yul\":13599:13638   */\n      tag_126\n      jump\t// in\n    tag_265:\n        /* \"#utility.yul\":13660:13751   */\n      tag_266\n        /* \"#utility.yul\":13709:13750   */\n      tag_267\n        /* \"#utility.yul\":13733:13749   */\n      dup3\n        /* \"#utility.yul\":13709:13750   */\n      tag_127\n      jump\t// in\n    tag_267:\n        /* \"#utility.yul\":13701:13707   */\n      dup5\n        /* \"#utility.yul\":13694:13698   */\n      dup5\n        /* \"#utility.yul\":13688:13699   */\n      sload\n        /* \"#utility.yul\":13660:13751   */\n      tag_124\n      jump\t// in\n    tag_266:\n        /* \"#utility.yul\":13654:13658   */\n      dup3\n        /* \"#utility.yul\":13647:13752   */\n      sstore\n        /* \"#utility.yul\":13565:13758   */\n      pop\n        /* \"#utility.yul\":13489:13758   */\n      pop\n      pop\n      pop\n      jump\t// out\n        /* \"#utility.yul\":13764:13837   */\n    tag_129:\n        /* \"#utility.yul\":13809:13812   */\n      0x00\n        /* \"#utility.yul\":13830:13831   */\n      0x00\n        /* \"#utility.yul\":13823:13831   */\n      swap1\n      pop\n        /* \"#utility.yul\":13764:13837   */\n      swap1\n      jump\t// out\n        /* \"#utility.yul\":13843:14032   */\n    tag_130:\n        /* \"#utility.yul\":13920:13952   */\n      tag_270\n      tag_129\n      jump\t// in\n    tag_270:\n        /* \"#utility.yul\":13961:14026   */\n      tag_271\n        /* \"#utility.yul\":14019:14025   */\n      dup2\n        /* \"#utility.yul\":14011:14017   */\n      dup5\n        /* \"#utility.yul\":14005:14009   */\n      dup5\n        /* \"#utility.yul\":13961:14026   */\n      tag_128\n      jump\t// in\n    tag_271:\n        /* \"#utility.yul\":13896:14032   */\n      pop\n        /* \"#utility.yul\":13843:14032   */\n      pop\n      pop\n      jump\t// out\n        /* \"#utility.yul\":14038:14224   */\n    tag_131:\n        /* \"#utility.yul\":14098:14218   */\n    tag_273:\n        /* \"#utility.yul\":14115:14118   */\n      dup2\n        /* \"#utility.yul\":14108:14113   */\n      dup2\n        /* \"#utility.yul\":14105:14119   */\n      lt\n        /* \"#utility.yul\":14098:14218   */\n      iszero\n      tag_275\n      jumpi\n        /* \"#utility.yul\":14169:14208   */\n      tag_276\n        /* \"#utility.yul\":14206:14207   */\n      0x00\n        /* \"#utility.yul\":14199:14204   */\n      dup3\n        /* \"#utility.yul\":14169:14208   */\n      tag_130\n      jump\t// in\n    tag_276:\n        /* \"#utility.yul\":14142:14143   */\n      0x01\n        /* \"#utility.yul\":14135:14140   */\n      dup2\n        /* \"#utility.yul\":14131:14144   */\n      add\n        /* \"#utility.yul\":14122:14144   */\n      swap1\n      pop\n        /* \"#utility.yul\":14098:14218   */\n      jump(tag_273)\n    tag_275:\n        /* \"#utility.yul\":14038:14224   */\n      pop\n      pop\n      jump\t// out\n        /* \"#utility.yul\":14230:14773   */\n    tag_132:\n        /* \"#utility.yul\":14331:14333   */\n      0x1f\n        /* \"#utility.yul\":14326:14329   */\n      dup3\n        /* \"#utility.yul\":14323:14334   */\n      gt\n        /* \"#utility.yul\":14320:14766   */\n      iszero\n      tag_278\n      jumpi\n        /* \"#utility.yul\":14365:14403   */\n      tag_279\n        /* \"#utility.yul\":14397:14402   */\n      dup2\n        /* \"#utility.yul\":14365:14403   */\n      tag_121\n      jump\t// in\n    tag_279:\n        /* \"#utility.yul\":14449:14478   */\n      tag_280\n        /* \"#utility.yul\":14467:14477   */\n      dup5\n        /* \"#utility.yul\":14449:14478   */\n      tag_122\n      jump\t// in\n    tag_280:\n        /* \"#utility.yul\":14439:14447   */\n      dup2\n        /* \"#utility.yul\":14435:14479   */\n      add\n        /* \"#utility.yul\":14632:14634   */\n      0x20\n        /* \"#utility.yul\":14620:14630   */\n      dup6\n        /* \"#utility.yul\":14617:14635   */\n      lt\n        /* \"#utility.yul\":14614:14663   */\n      iszero\n      tag_281\n      jumpi\n        /* \"#utility.yul\":14653:14661   */\n      dup2\n        /* \"#utility.yul\":14638:14661   */\n      swap1\n      pop\n        /* \"#utility.yul\":14614:14663   */\n    tag_281:\n        /* \"#utility.yul\":14676:14756   */\n      tag_282\n        /* \"#utility.yul\":14732:14754   */\n      tag_283\n        /* \"#utility.yul\":14750:14753   */\n      dup6\n        /* \"#utility.yul\":14732:14754   */\n      tag_122\n      jump\t// in\n    tag_283:\n        /* \"#utility.yul\":14722:14730   */\n      dup4\n        /* \"#utility.yul\":14718:14755   */\n      add\n        /* \"#utility.yul\":14705:14716   */\n      dup3\n        /* \"#utility.yul\":14676:14756   */\n      tag_131\n      jump\t// in\n    tag_282:\n        /* \"#utility.yul\":14335:14766   */\n      pop\n      pop\n        /* \"#utility.yul\":14320:14766   */\n    tag_278:\n        /* \"#utility.yul\":14230:14773   */\n      pop\n      pop\n      pop\n      jump\t// out\n        /* \"#utility.yul\":14779:14896   */\n    tag_133:\n        /* \"#utility.yul\":14833:14841   */\n      0x00\n        /* \"#utility.yul\":14883:14888   */\n      dup3\n        /* \"#utility.yul\":14877:14881   */\n      dup3\n        /* \"#utility.yul\":14873:14889   */\n      shr\n        /* \"#utility.yul\":14852:14889   */\n      swap1\n      pop\n        /* \"#utility.yul\":14779:14896   */\n      swap3\n      swap2\n      pop\n      pop\n      jump\t// out\n        /* \"#utility.yul\":14902:15071   */\n    tag_134:\n        /* \"#utility.yul\":14946:14952   */\n      0x00\n        /* \"#utility.yul\":14979:15030   */\n      tag_286\n        /* \"#utility.yul\":15027:15028   */\n      0x00\n        /* \"#utility.yul\":15023:15029   */\n      not\n        /* \"#utility.yul\":15015:15020   */\n      dup5\n        /* \"#utility.yul\":15012:15013   */\n      0x08\n        /* \"#utility.yul\":15008:15021   */\n      mul\n        /* \"#utility.yul\":14979:15030   */\n      tag_133\n      jump\t// in\n    tag_286:\n        /* \"#utility.yul\":14975:15031   */\n      not\n        /* \"#utility.yul\":15060:15064   */\n      dup1\n        /* \"#utility.yul\":15054:15058   */\n      dup4\n        /* \"#utility.yul\":15050:15065   */\n      and\n        /* \"#utility.yul\":15040:15065   */\n      swap2\n      pop\n        /* \"#utility.yul\":14953:15071   */\n      pop\n        /* \"#utility.yul\":14902:15071   */\n      swap3\n      swap2\n      pop\n      pop\n      jump\t// out\n        /* \"#utility.yul\":15076:15371   */\n    tag_135:\n        /* \"#utility.yul\":15152:15156   */\n      0x00\n        /* \"#utility.yul\":15298:15327   */\n      tag_288\n        /* \"#utility.yul\":15323:15326   */\n      dup4\n        /* \"#utility.yul\":15317:15321   */\n      dup4\n        /* \"#utility.yul\":15298:15327   */\n      tag_134\n      jump\t// in\n    tag_288:\n        /* \"#utility.yul\":15290:15327   */\n      swap2\n      pop\n        /* \"#utility.yul\":15360:15363   */\n      dup3\n        /* \"#utility.yul\":15357:15358   */\n      0x02\n        /* \"#utility.yul\":15353:15364   */\n      mul\n        /* \"#utility.yul\":15347:15351   */\n      dup3\n        /* \"#utility.yul\":15344:15365   */\n      or\n        /* \"#utility.yul\":15336:15365   */\n      swap1\n      pop\n        /* \"#utility.yul\":15076:15371   */\n      swap3\n      swap2\n      pop\n      pop\n      jump\t// out\n        /* \"#utility.yul\":15376:16771   */\n    tag_84:\n        /* \"#utility.yul\":15493:15530   */\n      tag_290\n        /* \"#utility.yul\":15526:15529   */\n      dup3\n        /* \"#utility.yul\":15493:15530   */\n      tag_93\n      jump\t// in\n    tag_290:\n        /* \"#utility.yul\":15595:15613   */\n      0xffffffffffffffff\n        /* \"#utility.yul\":15587:15593   */\n      dup2\n        /* \"#utility.yul\":15584:15614   */\n      gt\n        /* \"#utility.yul\":15581:15637   */\n      iszero\n      tag_291\n      jumpi\n        /* \"#utility.yul\":15617:15635   */\n      tag_292\n      tag_55\n      jump\t// in\n    tag_292:\n        /* \"#utility.yul\":15581:15637   */\n    tag_291:\n        /* \"#utility.yul\":15661:15699   */\n      tag_293\n        /* \"#utility.yul\":15693:15697   */\n      dup3\n        /* \"#utility.yul\":15687:15698   */\n      sload\n        /* \"#utility.yul\":15661:15699   */\n      tag_42\n      jump\t// in\n    tag_293:\n        /* \"#utility.yul\":15746:15813   */\n      tag_294\n        /* \"#utility.yul\":15806:15812   */\n      dup3\n        /* \"#utility.yul\":15798:15804   */\n      dup3\n        /* \"#utility.yul\":15792:15796   */\n      dup6\n        /* \"#utility.yul\":15746:15813   */\n      tag_132\n      jump\t// in\n    tag_294:\n        /* \"#utility.yul\":15840:15841   */\n      0x00\n        /* \"#utility.yul\":15864:15868   */\n      0x20\n        /* \"#utility.yul\":15851:15868   */\n      swap1\n      pop\n        /* \"#utility.yul\":15896:15898   */\n      0x1f\n        /* \"#utility.yul\":15888:15894   */\n      dup4\n        /* \"#utility.yul\":15885:15899   */\n      gt\n        /* \"#utility.yul\":15913:15914   */\n      0x01\n        /* \"#utility.yul\":15908:16526   */\n      dup2\n      eq\n      tag_296\n      jumpi\n        /* \"#utility.yul\":16570:16571   */\n      0x00\n        /* \"#utility.yul\":16587:16593   */\n      dup5\n        /* \"#utility.yul\":16584:16661   */\n      iszero\n      tag_297\n      jumpi\n        /* \"#utility.yul\":16636:16645   */\n      dup3\n        /* \"#utility.yul\":16631:16634   */\n      dup8\n        /* \"#utility.yul\":16627:16646   */\n      add\n        /* \"#utility.yul\":16621:16647   */\n      mload\n        /* \"#utility.yul\":16612:16647   */\n      swap1\n      pop\n        /* \"#utility.yul\":16584:16661   */\n    tag_297:\n        /* \"#utility.yul\":16687:16754   */\n      tag_298\n        /* \"#utility.yul\":16747:16753   */\n      dup6\n        /* \"#utility.yul\":16740:16745   */\n      dup3\n        /* \"#utility.yul\":16687:16754   */\n      tag_135\n      jump\t// in\n    tag_298:\n        /* \"#utility.yul\":16681:16685   */\n      dup7\n        /* \"#utility.yul\":16674:16755   */\n      sstore\n        /* \"#utility.yul\":16543:16765   */\n      pop\n        /* \"#utility.yul\":15878:16765   */\n      jump(tag_295)\n        /* \"#utility.yul\":15908:16526   */\n    tag_296:\n        /* \"#utility.yul\":15960:15964   */\n      0x1f\n        /* \"#utility.yul\":15956:15965   */\n      not\n        /* \"#utility.yul\":15948:15954   */\n      dup5\n        /* \"#utility.yul\":15944:15966   */\n      and\n        /* \"#utility.yul\":15994:16031   */\n      tag_299\n        /* \"#utility.yul\":16026:16030   */\n      dup7\n        /* \"#utility.yul\":15994:16031   */\n      tag_121\n      jump\t// in\n    tag_299:\n        /* \"#utility.yul\":16053:16054   */\n      0x00\n        /* \"#utility.yul\":16067:16275   */\n    tag_300:\n        /* \"#utility.yul\":16081:16088   */\n      dup3\n        /* \"#utility.yul\":16078:16079   */\n      dup2\n        /* \"#utility.yul\":16075:16089   */\n      lt\n        /* \"#utility.yul\":16067:16275   */\n      iszero\n      tag_302\n      jumpi\n        /* \"#utility.yul\":16160:16169   */\n      dup5\n        /* \"#utility.yul\":16155:16158   */\n      dup10\n        /* \"#utility.yul\":16151:16170   */\n      add\n        /* \"#utility.yul\":16145:16171   */\n      mload\n        /* \"#utility.yul\":16137:16143   */\n      dup3\n        /* \"#utility.yul\":16130:16172   */\n      sstore\n        /* \"#utility.yul\":16211:16212   */\n      0x01\n        /* \"#utility.yul\":16203:16209   */\n      dup3\n        /* \"#utility.yul\":16199:16213   */\n      add\n        /* \"#utility.yul\":16189:16213   */\n      swap2\n      pop\n        /* \"#utility.yul\":16258:16260   */\n      0x20\n        /* \"#utility.yul\":16247:16256   */\n      dup6\n        /* \"#utility.yul\":16243:16261   */\n      add\n        /* \"#utility.yul\":16230:16261   */\n      swap5\n      pop\n        /* \"#utility.yul\":16104:16108   */\n      0x20\n        /* \"#utility.yul\":16101:16102   */\n      dup2\n        /* \"#utility.yul\":16097:16109   */\n      add\n        /* \"#utility.yul\":16092:16109   */\n      swap1\n      pop\n        /* \"#utility.yul\":16067:16275   */\n      jump(tag_300)\n    tag_302:\n        /* \"#utility.yul\":16303:16309   */\n      dup7\n        /* \"#utility.yul\":16294:16301   */\n      dup4\n        /* \"#utility.yul\":16291:16310   */\n      lt\n        /* \"#utility.yul\":16288:16467   */\n      iszero\n      tag_303\n      jumpi\n        /* \"#utility.yul\":16361:16370   */\n      dup5\n        /* \"#utility.yul\":16356:16359   */\n      dup10\n        /* \"#utility.yul\":16352:16371   */\n      add\n        /* \"#utility.yul\":16346:16372   */\n      mload\n        /* \"#utility.yul\":16404:16452   */\n      tag_304\n        /* \"#utility.yul\":16446:16450   */\n      0x1f\n        /* \"#utility.yul\":16438:16444   */\n      dup10\n        /* \"#utility.yul\":16434:16451   */\n      and\n        /* \"#utility.yul\":16423:16432   */\n      dup3\n        /* \"#utility.yul\":16404:16452   */\n      tag_134\n      jump\t// in\n    tag_304:\n        /* \"#utility.yul\":16396:16402   */\n      dup4\n        /* \"#utility.yul\":16389:16453   */\n      sstore\n        /* \"#utility.yul\":16311:16467   */\n      pop\n        /* \"#utility.yul\":16288:16467   */\n    tag_303:\n        /* \"#utility.yul\":16513:16514   */\n      0x01\n        /* \"#utility.yul\":16509:16510   */\n      0x02\n        /* \"#utility.yul\":16501:16507   */\n      dup9\n        /* \"#utility.yul\":16497:16511   */\n      mul\n        /* \"#utility.yul\":16493:16515   */\n      add\n        /* \"#utility.yul\":16487:16491   */\n      dup9\n        /* \"#utility.yul\":16480:16516   */\n      sstore\n        /* \"#utility.yul\":15915:16526   */\n      pop\n      pop\n      pop\n        /* \"#utility.yul\":15878:16765   */\n    tag_295:\n      pop\n        /* \"#utility.yul\":15468:16771   */\n      pop\n      pop\n      pop\n        /* \"#utility.yul\":15376:16771   */\n      pop\n      pop\n      jump\t// out\n\n    auxdata: 0xa2646970667358221220f07e946fa3a984acc17e7b5295a110d9a0850f79cbeb6fc8004d8e427106e42464736f6c634300081e0033\n}\n",
				"bytecode": {
					"linkReferences": {},
					"object": "60806040525f6001553480156012575f5ffd5b50335f5f6101000a81548173ffffffffffffffffffffffffffffffffffffffff021916908373ffffffffffffffffffffffffffffffffffffffff160217905550610e278061005f5f395ff3fe60806040526004361061004d575f3560e01c80630c3361fb146100505780638da5cb5b1461008f578063a7f9fe72146100b9578063c7c75156146100e3578063fe615f2a1461010b5761004e565b5b005b34801561005b575f5ffd5b50610076600480360381019061007191906105b7565b610135565b6040516100869493929190610661565b60405180910390f35b34801561009a575f5ffd5b506100a361027c565b6040516100b091906106f1565b60405180910390f35b3480156100c4575f5ffd5b506100cd6102a0565b6040516100da9190610883565b60405180910390f35b3480156100ee575f5ffd5b50610109600480360381019061010491906109cf565b6104a1565b005b348015610116575f5ffd5b5061011f610547565b60405161012c9190610a6b565b60405180910390f35b60028181548110610144575f80fd5b905f5260205f2090600402015f91509050805f01549080600101805461016990610ab1565b80601f016020809104026020016040519081016040528092919081815260200182805461019590610ab1565b80156101e05780601f106101b7576101008083540402835291602001916101e0565b820191905f5260205f20905b8154815290600101906020018083116101c357829003601f168201915b5050505050908060020180546101f590610ab1565b80601f016020809104026020016040519081016040528092919081815260200182805461022190610ab1565b801561026c5780601f106102435761010080835404028352916020019161026c565b820191905f5260205f20905b81548152906001019060200180831161024f57829003601f168201915b5050505050908060030154905084565b5f5f9054906101000a900473ffffffffffffffffffffffffffffffffffffffff1681565b60605f60028054905067ffffffffffffffff8111156102c2576102c16108ab565b5b6040519080825280602002602001820160405280156102fb57816020015b6102e861054d565b8152602001906001900390816102e05790505b5090505f5f90505b600280549050811015610499576002818154811061032457610323610ae1565b5b905f5260205f2090600402016040518060800160405290815f820154815260200160018201805461035490610ab1565b80601f016020809104026020016040519081016040528092919081815260200182805461038090610ab1565b80156103cb5780601f106103a2576101008083540402835291602001916103cb565b820191905f5260205f20905b8154815290600101906020018083116103ae57829003601f168201915b505050505081526020016002820180546103e490610ab1565b80601f016020809104026020016040519081016040528092919081815260200182805461041090610ab1565b801561045b5780601f106104325761010080835404028352916020019161045b565b820191905f5260205f20905b81548152906001019060200180831161043e57829003601f168201915b5050505050815260200160038201548152505082828151811061048157610480610ae1565b5b60200260200101819052508080600101915050610303565b508091505090565b60015f8154809291906104b390610b3b565b91905055506002604051806080016040528086815260200185815260200184815260200183815250908060018154018082558091505060019003905f5260205f2090600402015f909190919091505f820151815f0155602082015181600101908161051e9190610d22565b5060408201518160020190816105349190610d22565b5060608201518160030155505050505050565b60015481565b60405180608001604052805f815260200160608152602001606081526020015f81525090565b5f604051905090565b5f5ffd5b5f5ffd5b5f819050919050565b61059681610584565b81146105a0575f5ffd5b50565b5f813590506105b18161058d565b92915050565b5f602082840312156105cc576105cb61057c565b5b5f6105d9848285016105a3565b91505092915050565b6105eb81610584565b82525050565b5f81519050919050565b5f82825260208201905092915050565b8281835e5f83830152505050565b5f601f19601f8301169050919050565b5f610633826105f1565b61063d81856105fb565b935061064d81856020860161060b565b61065681610619565b840191505092915050565b5f6080820190506106745f8301876105e2565b81810360208301526106868186610629565b9050818103604083015261069a8185610629565b90506106a960608301846105e2565b95945050505050565b5f73ffffffffffffffffffffffffffffffffffffffff82169050919050565b5f6106db826106b2565b9050919050565b6106eb816106d1565b82525050565b5f6020820190506107045f8301846106e2565b92915050565b5f81519050919050565b5f82825260208201905092915050565b5f819050602082019050919050565b61073c81610584565b82525050565b5f82825260208201905092915050565b5f61075c826105f1565b6107668185610742565b935061077681856020860161060b565b61077f81610619565b840191505092915050565b5f608083015f83015161079f5f860182610733565b50602083015184820360208601526107b78282610752565b915050604083015184820360408601526107d18282610752565b91505060608301516107e66060860182610733565b508091505092915050565b5f6107fc838361078a565b905092915050565b5f602082019050919050565b5f61081a8261070a565b6108248185610714565b93508360208202850161083685610724565b805f5b85811015610871578484038952815161085285826107f1565b945061085d83610804565b925060208a01995050600181019050610839565b50829750879550505050505092915050565b5f6020820190508181035f83015261089b8184610810565b905092915050565b5f5ffd5b5f5ffd5b7f4e487b71000000000000000000000000000000000000000000000000000000005f52604160045260245ffd5b6108e182610619565b810181811067ffffffffffffffff82111715610900576108ff6108ab565b5b80604052505050565b5f610912610573565b905061091e82826108d8565b919050565b5f67ffffffffffffffff82111561093d5761093c6108ab565b5b61094682610619565b9050602081019050919050565b828183375f83830152505050565b5f61097361096e84610923565b610909565b90508281526020810184848401111561098f5761098e6108a7565b5b61099a848285610953565b509392505050565b5f82601f8301126109b6576109b56108a3565b5b81356109c6848260208601610961565b91505092915050565b5f5f5f5f608085870312156109e7576109e661057c565b5b5f6109f4878288016105a3565b945050602085013567ffffffffffffffff811115610a1557610a14610580565b5b610a21878288016109a2565b935050604085013567ffffffffffffffff811115610a4257610a41610580565b5b610a4e878288016109a2565b9250506060610a5f878288016105a3565b91505092959194509250565b5f602082019050610a7e5f8301846105e2565b92915050565b7f4e487b71000000000000000000000000000000000000000000000000000000005f52602260045260245ffd5b5f6002820490506001821680610ac857607f821691505b602082108103610adb57610ada610a84565b5b50919050565b7f4e487b71000000000000000000000000000000000000000000000000000000005f52603260045260245ffd5b7f4e487b71000000000000000000000000000000000000000000000000000000005f52601160045260245ffd5b5f610b4582610584565b91507fffffffffffffffffffffffffffffffffffffffffffffffffffffffffffffffff8203610b7757610b76610b0e565b5b600182019050919050565b5f819050815f5260205f209050919050565b5f6020601f8301049050919050565b5f82821b905092915050565b5f60088302610bde7fffffffffffffffffffffffffffffffffffffffffffffffffffffffffffffffff82610ba3565b610be88683610ba3565b95508019841693508086168417925050509392505050565b5f819050919050565b5f610c23610c1e610c1984610584565b610c00565b610584565b9050919050565b5f819050919050565b610c3c83610c09565b610c50610c4882610c2a565b848454610baf565b825550505050565b5f5f905090565b610c67610c58565b610c72818484610c33565b505050565b5b81811015610c9557610c8a5f82610c5f565b600181019050610c78565b5050565b601f821115610cda57610cab81610b82565b610cb484610b94565b81016020851015610cc3578190505b610cd7610ccf85610b94565b830182610c77565b50505b505050565b5f82821c905092915050565b5f610cfa5f1984600802610cdf565b1980831691505092915050565b5f610d128383610ceb565b9150826002028217905092915050565b610d2b826105f1565b67ffffffffffffffff811115610d4457610d436108ab565b5b610d4e8254610ab1565b610d59828285610c99565b5f60209050601f831160018114610d8a575f8415610d78578287015190505b610d828582610d07565b865550610de9565b601f198416610d9886610b82565b5f5b82811015610dbf57848901518255600182019150602085019450602081019050610d9a565b86831015610ddc5784890151610dd8601f891682610ceb565b8355505b6001600288020188555050505b50505050505056fea2646970667358221220f07e946fa3a984acc17e7b5295a110d9a0850f79cbeb6fc8004d8e427106e42464736f6c634300081e0033",
					"opcodes": "PUSH1 0x80 PUSH1 0x40 MSTORE PUSH0 PUSH1 0x1 SSTORE CALLVALUE DUP1 ISZERO PUSH1 0x12 JUMPI PUSH0 PUSH0 REVERT JUMPDEST POP CALLER PUSH0 PUSH0 PUSH2 0x100 EXP DUP2 SLOAD DUP2 PUSH20 0xFFFFFFFFFFFFFFFFFFFFFFFFFFFFFFFFFFFFFFFF MUL NOT AND SWAP1 DUP4 PUSH20 0xFFFFFFFFFFFFFFFFFFFFFFFFFFFFFFFFFFFFFFFF AND MUL OR SWAP1 SSTORE POP PUSH2 0xE27 DUP1 PUSH2 0x5F PUSH0 CODECOPY PUSH0 RETURN INVALID PUSH1 0x80 PUSH1 0x40 MSTORE PUSH1 0x4 CALLDATASIZE LT PUSH2 0x4D JUMPI PUSH0 CALLDATALOAD PUSH1 0xE0 SHR DUP1 PUSH4 0xC3361FB EQ PUSH2 0x50 JUMPI DUP1 PUSH4 0x8DA5CB5B EQ PUSH2 0x8F JUMPI DUP1 PUSH4 0xA7F9FE72 EQ PUSH2 0xB9 JUMPI DUP1 PUSH4 0xC7C75156 EQ PUSH2 0xE3 JUMPI DUP1 PUSH4 0xFE615F2A EQ PUSH2 0x10B JUMPI PUSH2 0x4E JUMP JUMPDEST JUMPDEST STOP JUMPDEST CALLVALUE DUP1 ISZERO PUSH2 0x5B JUMPI PUSH0 PUSH0 REVERT JUMPDEST POP PUSH2 0x76 PUSH1 0x4 DUP1 CALLDATASIZE SUB DUP2 ADD SWAP1 PUSH2 0x71 SWAP2 SWAP1 PUSH2 0x5B7 JUMP JUMPDEST PUSH2 0x135 JUMP JUMPDEST PUSH1 0x40 MLOAD PUSH2 0x86 SWAP5 SWAP4 SWAP3 SWAP2 SWAP1 PUSH2 0x661 JUMP JUMPDEST PUSH1 0x40 MLOAD DUP1 SWAP2 SUB SWAP1 RETURN JUMPDEST CALLVALUE DUP1 ISZERO PUSH2 0x9A JUMPI PUSH0 PUSH0 REVERT JUMPDEST POP PUSH2 0xA3 PUSH2 0x27C JUMP JUMPDEST PUSH1 0x40 MLOAD PUSH2 0xB0 SWAP2 SWAP1 PUSH2 0x6F1 JUMP JUMPDEST PUSH1 0x40 MLOAD DUP1 SWAP2 SUB SWAP1 RETURN JUMPDEST CALLVALUE DUP1 ISZERO PUSH2 0xC4 JUMPI PUSH0 PUSH0 REVERT JUMPDEST POP PUSH2 0xCD PUSH2 0x2A0 JUMP JUMPDEST PUSH1 0x40 MLOAD PUSH2 0xDA SWAP2 SWAP1 PUSH2 0x883 JUMP JUMPDEST PUSH1 0x40 MLOAD DUP1 SWAP2 SUB SWAP1 RETURN JUMPDEST CALLVALUE DUP1 ISZERO PUSH2 0xEE JUMPI PUSH0 PUSH0 REVERT JUMPDEST POP PUSH2 0x109 PUSH1 0x4 DUP1 CALLDATASIZE SUB DUP2 ADD SWAP1 PUSH2 0x104 SWAP2 SWAP1 PUSH2 0x9CF JUMP JUMPDEST PUSH2 0x4A1 JUMP JUMPDEST STOP JUMPDEST CALLVALUE DUP1 ISZERO PUSH2 0x116 JUMPI PUSH0 PUSH0 REVERT JUMPDEST POP PUSH2 0x11F PUSH2 0x547 JUMP JUMPDEST PUSH1 0x40 MLOAD PUSH2 0x12C SWAP2 SWAP1 PUSH2 0xA6B JUMP JUMPDEST PUSH1 0x40 MLOAD DUP1 SWAP2 SUB SWAP1 RETURN JUMPDEST PUSH1 0x2 DUP2 DUP2 SLOAD DUP2 LT PUSH2 0x144 JUMPI PUSH0 DUP1 REVERT JUMPDEST SWAP1 PUSH0 MSTORE PUSH1 0x20 PUSH0 KECCAK256 SWAP1 PUSH1 0x4 MUL ADD PUSH0 SWAP2 POP SWAP1 POP DUP1 PUSH0 ADD SLOAD SWAP1 DUP1 PUSH1 0x1 ADD DUP1 SLOAD PUSH2 0x169 SWAP1 PUSH2 0xAB1 JUMP JUMPDEST DUP1 PUSH1 0x1F ADD PUSH1 0x20 DUP1 SWAP2 DIV MUL PUSH1 0x20 ADD PUSH1 0x40 MLOAD SWAP1 DUP2 ADD PUSH1 0x40 MSTORE DUP1 SWAP3 SWAP2 SWAP1 DUP2 DUP2 MSTORE PUSH1 0x20 ADD DUP3 DUP1 SLOAD PUSH2 0x195 SWAP1 PUSH2 0xAB1 JUMP JUMPDEST DUP1 ISZERO PUSH2 0x1E0 JUMPI DUP1 PUSH1 0x1F LT PUSH2 0x1B7 JUMPI PUSH2 0x100 DUP1 DUP4 SLOAD DIV MUL DUP4 MSTORE SWAP2 PUSH1 0x20 ADD SWAP2 PUSH2 0x1E0 JUMP JUMPDEST DUP3 ADD SWAP2 SWAP1 PUSH0 MSTORE PUSH1 0x20 PUSH0 KECCAK256 SWAP1 JUMPDEST DUP2 SLOAD DUP2 MSTORE SWAP1 PUSH1 0x1 ADD SWAP1 PUSH1 0x20 ADD DUP1 DUP4 GT PUSH2 0x1C3 JUMPI DUP3 SWAP1 SUB PUSH1 0x1F AND DUP3 ADD SWAP2 JUMPDEST POP POP POP POP POP SWAP1 DUP1 PUSH1 0x2 ADD DUP1 SLOAD PUSH2 0x1F5 SWAP1 PUSH2 0xAB1 JUMP JUMPDEST DUP1 PUSH1 0x1F ADD PUSH1 0x20 DUP1 SWAP2 DIV MUL PUSH1 0x20 ADD PUSH1 0x40 MLOAD SWAP1 DUP2 ADD PUSH1 0x40 MSTORE DUP1 SWAP3 SWAP2 SWAP1 DUP2 DUP2 MSTORE PUSH1 0x20 ADD DUP3 DUP1 SLOAD PUSH2 0x221 SWAP1 PUSH2 0xAB1 JUMP JUMPDEST DUP1 ISZERO PUSH2 0x26C JUMPI DUP1 PUSH1 0x1F LT PUSH2 0x243 JUMPI PUSH2 0x100 DUP1 DUP4 SLOAD DIV MUL DUP4 MSTORE SWAP2 PUSH1 0x20 ADD SWAP2 PUSH2 0x26C JUMP JUMPDEST DUP3 ADD SWAP2 SWAP1 PUSH0 MSTORE PUSH1 0x20 PUSH0 KECCAK256 SWAP1 JUMPDEST DUP2 SLOAD DUP2 MSTORE SWAP1 PUSH1 0x1 ADD SWAP1 PUSH1 0x20 ADD DUP1 DUP4 GT PUSH2 0x24F JUMPI DUP3 SWAP1 SUB PUSH1 0x1F AND DUP3 ADD SWAP2 JUMPDEST POP POP POP POP POP SWAP1 DUP1 PUSH1 0x3 ADD SLOAD SWAP1 POP DUP5 JUMP JUMPDEST PUSH0 PUSH0 SWAP1 SLOAD SWAP1 PUSH2 0x100 EXP SWAP1 DIV PUSH20 0xFFFFFFFFFFFFFFFFFFFFFFFFFFFFFFFFFFFFFFFF AND DUP2 JUMP JUMPDEST PUSH1 0x60 PUSH0 PUSH1 0x2 DUP1 SLOAD SWAP1 POP PUSH8 0xFFFFFFFFFFFFFFFF DUP2 GT ISZERO PUSH2 0x2C2 JUMPI PUSH2 0x2C1 PUSH2 0x8AB JUMP JUMPDEST JUMPDEST PUSH1 0x40 MLOAD SWAP1 DUP1 DUP3 MSTORE DUP1 PUSH1 0x20 MUL PUSH1 0x20 ADD DUP3 ADD PUSH1 0x40 MSTORE DUP1 ISZERO PUSH2 0x2FB JUMPI DUP2 PUSH1 0x20 ADD JUMPDEST PUSH2 0x2E8 PUSH2 0x54D JUMP JUMPDEST DUP2 MSTORE PUSH1 0x20 ADD SWAP1 PUSH1 0x1 SWAP1 SUB SWAP1 DUP2 PUSH2 0x2E0 JUMPI SWAP1 POP JUMPDEST POP SWAP1 POP PUSH0 PUSH0 SWAP1 POP JUMPDEST PUSH1 0x2 DUP1 SLOAD SWAP1 POP DUP2 LT ISZERO PUSH2 0x499 JUMPI PUSH1 0x2 DUP2 DUP2 SLOAD DUP2 LT PUSH2 0x324 JUMPI PUSH2 0x323 PUSH2 0xAE1 JUMP JUMPDEST JUMPDEST SWAP1 PUSH0 MSTORE PUSH1 0x20 PUSH0 KECCAK256 SWAP1 PUSH1 0x4 MUL ADD PUSH1 0x40 MLOAD DUP1 PUSH1 0x80 ADD PUSH1 0x40 MSTORE SWAP1 DUP2 PUSH0 DUP3 ADD SLOAD DUP2 MSTORE PUSH1 0x20 ADD PUSH1 0x1 DUP3 ADD DUP1 SLOAD PUSH2 0x354 SWAP1 PUSH2 0xAB1 JUMP JUMPDEST DUP1 PUSH1 0x1F ADD PUSH1 0x20 DUP1 SWAP2 DIV MUL PUSH1 0x20 ADD PUSH1 0x40 MLOAD SWAP1 DUP2 ADD PUSH1 0x40 MSTORE DUP1 SWAP3 SWAP2 SWAP1 DUP2 DUP2 MSTORE PUSH1 0x20 ADD DUP3 DUP1 SLOAD PUSH2 0x380 SWAP1 PUSH2 0xAB1 JUMP JUMPDEST DUP1 ISZERO PUSH2 0x3CB JUMPI DUP1 PUSH1 0x1F LT PUSH2 0x3A2 JUMPI PUSH2 0x100 DUP1 DUP4 SLOAD DIV MUL DUP4 MSTORE SWAP2 PUSH1 0x20 ADD SWAP2 PUSH2 0x3CB JUMP JUMPDEST DUP3 ADD SWAP2 SWAP1 PUSH0 MSTORE PUSH1 0x20 PUSH0 KECCAK256 SWAP1 JUMPDEST DUP2 SLOAD DUP2 MSTORE SWAP1 PUSH1 0x1 ADD SWAP1 PUSH1 0x20 ADD DUP1 DUP4 GT PUSH2 0x3AE JUMPI DUP3 SWAP1 SUB PUSH1 0x1F AND DUP3 ADD SWAP2 JUMPDEST POP POP POP POP POP DUP2 MSTORE PUSH1 0x20 ADD PUSH1 0x2 DUP3 ADD DUP1 SLOAD PUSH2 0x3E4 SWAP1 PUSH2 0xAB1 JUMP JUMPDEST DUP1 PUSH1 0x1F ADD PUSH1 0x20 DUP1 SWAP2 DIV MUL PUSH1 0x20 ADD PUSH1 0x40 MLOAD SWAP1 DUP2 ADD PUSH1 0x40 MSTORE DUP1 SWAP3 SWAP2 SWAP1 DUP2 DUP2 MSTORE PUSH1 0x20 ADD DUP3 DUP1 SLOAD PUSH2 0x410 SWAP1 PUSH2 0xAB1 JUMP JUMPDEST DUP1 ISZERO PUSH2 0x45B JUMPI DUP1 PUSH1 0x1F LT PUSH2 0x432 JUMPI PUSH2 0x100 DUP1 DUP4 SLOAD DIV MUL DUP4 MSTORE SWAP2 PUSH1 0x20 ADD SWAP2 PUSH2 0x45B JUMP JUMPDEST DUP3 ADD SWAP2 SWAP1 PUSH0 MSTORE PUSH1 0x20 PUSH0 KECCAK256 SWAP1 JUMPDEST DUP2 SLOAD DUP2 MSTORE SWAP1 PUSH1 0x1 ADD SWAP1 PUSH1 0x20 ADD DUP1 DUP4 GT PUSH2 0x43E JUMPI DUP3 SWAP1 SUB PUSH1 0x1F AND DUP3 ADD SWAP2 JUMPDEST POP POP POP POP POP DUP2 MSTORE PUSH1 0x20 ADD PUSH1 0x3 DUP3 ADD SLOAD DUP2 MSTORE POP POP DUP3 DUP3 DUP2 MLOAD DUP2 LT PUSH2 0x481 JUMPI PUSH2 0x480 PUSH2 0xAE1 JUMP JUMPDEST JUMPDEST PUSH1 0x20 MUL PUSH1 0x20 ADD ADD DUP2 SWAP1 MSTORE POP DUP1 DUP1 PUSH1 0x1 ADD SWAP2 POP POP PUSH2 0x303 JUMP JUMPDEST POP DUP1 SWAP2 POP POP SWAP1 JUMP JUMPDEST PUSH1 0x1 PUSH0 DUP2 SLOAD DUP1 SWAP3 SWAP2 SWAP1 PUSH2 0x4B3 SWAP1 PUSH2 0xB3B JUMP JUMPDEST SWAP2 SWAP1 POP SSTORE POP PUSH1 0x2 PUSH1 0x40 MLOAD DUP1 PUSH1 0x80 ADD PUSH1 0x40 MSTORE DUP1 DUP7 DUP2 MSTORE PUSH1 0x20 ADD DUP6 DUP2 MSTORE PUSH1 0x20 ADD DUP5 DUP2 MSTORE PUSH1 0x20 ADD DUP4 DUP2 MSTORE POP SWAP1 DUP1 PUSH1 0x1 DUP2 SLOAD ADD DUP1 DUP3 SSTORE DUP1 SWAP2 POP POP PUSH1 0x1 SWAP1 SUB SWAP1 PUSH0 MSTORE PUSH1 0x20 PUSH0 KECCAK256 SWAP1 PUSH1 0x4 MUL ADD PUSH0 SWAP1 SWAP2 SWAP1 SWAP2 SWAP1 SWAP2 POP PUSH0 DUP3 ADD MLOAD DUP2 PUSH0 ADD SSTORE PUSH1 0x20 DUP3 ADD MLOAD DUP2 PUSH1 0x1 ADD SWAP1 DUP2 PUSH2 0x51E SWAP2 SWAP1 PUSH2 0xD22 JUMP JUMPDEST POP PUSH1 0x40 DUP3 ADD MLOAD DUP2 PUSH1 0x2 ADD SWAP1 DUP2 PUSH2 0x534 SWAP2 SWAP1 PUSH2 0xD22 JUMP JUMPDEST POP PUSH1 0x60 DUP3 ADD MLOAD DUP2 PUSH1 0x3 ADD SSTORE POP POP POP POP POP POP JUMP JUMPDEST PUSH1 0x1 SLOAD DUP2 JUMP JUMPDEST PUSH1 0x40 MLOAD DUP1 PUSH1 0x80 ADD PUSH1 0x40 MSTORE DUP1 PUSH0 DUP2 MSTORE PUSH1 0x20 ADD PUSH1 0x60 DUP2 MSTORE PUSH1 0x20 ADD PUSH1 0x60 DUP2 MSTORE PUSH1 0x20 ADD PUSH0 DUP2 MSTORE POP SWAP1 JUMP JUMPDEST PUSH0 PUSH1 0x40 MLOAD SWAP1 POP SWAP1 JUMP JUMPDEST PUSH0 PUSH0 REVERT JUMPDEST PUSH0 PUSH0 REVERT JUMPDEST PUSH0 DUP2 SWAP1 POP SWAP2 SWAP1 POP JUMP JUMPDEST PUSH2 0x596 DUP2 PUSH2 0x584 JUMP JUMPDEST DUP2 EQ PUSH2 0x5A0 JUMPI PUSH0 PUSH0 REVERT JUMPDEST POP JUMP JUMPDEST PUSH0 DUP2 CALLDATALOAD SWAP1 POP PUSH2 0x5B1 DUP2 PUSH2 0x58D JUMP JUMPDEST SWAP3 SWAP2 POP POP JUMP JUMPDEST PUSH0 PUSH1 0x20 DUP3 DUP5 SUB SLT ISZERO PUSH2 0x5CC JUMPI PUSH2 0x5CB PUSH2 0x57C JUMP JUMPDEST JUMPDEST PUSH0 PUSH2 0x5D9 DUP5 DUP3 DUP6 ADD PUSH2 0x5A3 JUMP JUMPDEST SWAP2 POP POP SWAP3 SWAP2 POP POP JUMP JUMPDEST PUSH2 0x5EB DUP2 PUSH2 0x584 JUMP JUMPDEST DUP3 MSTORE POP POP JUMP JUMPDEST PUSH0 DUP2 MLOAD SWAP1 POP SWAP2 SWAP1 POP JUMP JUMPDEST PUSH0 DUP3 DUP3 MSTORE PUSH1 0x20 DUP3 ADD SWAP1 POP SWAP3 SWAP2 POP POP JUMP JUMPDEST DUP3 DUP2 DUP4 MCOPY PUSH0 DUP4 DUP4 ADD MSTORE POP POP POP JUMP JUMPDEST PUSH0 PUSH1 0x1F NOT PUSH1 0x1F DUP4 ADD AND SWAP1 POP SWAP2 SWAP1 POP JUMP JUMPDEST PUSH0 PUSH2 0x633 DUP3 PUSH2 0x5F1 JUMP JUMPDEST PUSH2 0x63D DUP2 DUP6 PUSH2 0x5FB JUMP JUMPDEST SWAP4 POP PUSH2 0x64D DUP2 DUP6 PUSH1 0x20 DUP7 ADD PUSH2 0x60B JUMP JUMPDEST PUSH2 0x656 DUP2 PUSH2 0x619 JUMP JUMPDEST DUP5 ADD SWAP2 POP POP SWAP3 SWAP2 POP POP JUMP JUMPDEST PUSH0 PUSH1 0x80 DUP3 ADD SWAP1 POP PUSH2 0x674 PUSH0 DUP4 ADD DUP8 PUSH2 0x5E2 JUMP JUMPDEST DUP2 DUP2 SUB PUSH1 0x20 DUP4 ADD MSTORE PUSH2 0x686 DUP2 DUP7 PUSH2 0x629 JUMP JUMPDEST SWAP1 POP DUP2 DUP2 SUB PUSH1 0x40 DUP4 ADD MSTORE PUSH2 0x69A DUP2 DUP6 PUSH2 0x629 JUMP JUMPDEST SWAP1 POP PUSH2 0x6A9 PUSH1 0x60 DUP4 ADD DUP5 PUSH2 0x5E2 JUMP JUMPDEST SWAP6 SWAP5 POP POP POP POP POP JUMP JUMPDEST PUSH0 PUSH20 0xFFFFFFFFFFFFFFFFFFFFFFFFFFFFFFFFFFFFFFFF DUP3 AND SWAP1 POP SWAP2 SWAP1 POP JUMP JUMPDEST PUSH0 PUSH2 0x6DB DUP3 PUSH2 0x6B2 JUMP JUMPDEST SWAP1 POP SWAP2 SWAP1 POP JUMP JUMPDEST PUSH2 0x6EB DUP2 PUSH2 0x6D1 JUMP JUMPDEST DUP3 MSTORE POP POP JUMP JUMPDEST PUSH0 PUSH1 0x20 DUP3 ADD SWAP1 POP PUSH2 0x704 PUSH0 DUP4 ADD DUP5 PUSH2 0x6E2 JUMP JUMPDEST SWAP3 SWAP2 POP POP JUMP JUMPDEST PUSH0 DUP2 MLOAD SWAP1 POP SWAP2 SWAP1 POP JUMP JUMPDEST PUSH0 DUP3 DUP3 MSTORE PUSH1 0x20 DUP3 ADD SWAP1 POP SWAP3 SWAP2 POP POP JUMP JUMPDEST PUSH0 DUP2 SWAP1 POP PUSH1 0x20 DUP3 ADD SWAP1 POP SWAP2 SWAP1 POP JUMP JUMPDEST PUSH2 0x73C DUP2 PUSH2 0x584 JUMP JUMPDEST DUP3 MSTORE POP POP JUMP JUMPDEST PUSH0 DUP3 DUP3 MSTORE PUSH1 0x20 DUP3 ADD SWAP1 POP SWAP3 SWAP2 POP POP JUMP JUMPDEST PUSH0 PUSH2 0x75C DUP3 PUSH2 0x5F1 JUMP JUMPDEST PUSH2 0x766 DUP2 DUP6 PUSH2 0x742 JUMP JUMPDEST SWAP4 POP PUSH2 0x776 DUP2 DUP6 PUSH1 0x20 DUP7 ADD PUSH2 0x60B JUMP JUMPDEST PUSH2 0x77F DUP2 PUSH2 0x619 JUMP JUMPDEST DUP5 ADD SWAP2 POP POP SWAP3 SWAP2 POP POP JUMP JUMPDEST PUSH0 PUSH1 0x80 DUP4 ADD PUSH0 DUP4 ADD MLOAD PUSH2 0x79F PUSH0 DUP7 ADD DUP3 PUSH2 0x733 JUMP JUMPDEST POP PUSH1 0x20 DUP4 ADD MLOAD DUP5 DUP3 SUB PUSH1 0x20 DUP7 ADD MSTORE PUSH2 0x7B7 DUP3 DUP3 PUSH2 0x752 JUMP JUMPDEST SWAP2 POP POP PUSH1 0x40 DUP4 ADD MLOAD DUP5 DUP3 SUB PUSH1 0x40 DUP7 ADD MSTORE PUSH2 0x7D1 DUP3 DUP3 PUSH2 0x752 JUMP JUMPDEST SWAP2 POP POP PUSH1 0x60 DUP4 ADD MLOAD PUSH2 0x7E6 PUSH1 0x60 DUP7 ADD DUP3 PUSH2 0x733 JUMP JUMPDEST POP DUP1 SWAP2 POP POP SWAP3 SWAP2 POP POP JUMP JUMPDEST PUSH0 PUSH2 0x7FC DUP4 DUP4 PUSH2 0x78A JUMP JUMPDEST SWAP1 POP SWAP3 SWAP2 POP POP JUMP JUMPDEST PUSH0 PUSH1 0x20 DUP3 ADD SWAP1 POP SWAP2 SWAP1 POP JUMP JUMPDEST PUSH0 PUSH2 0x81A DUP3 PUSH2 0x70A JUMP JUMPDEST PUSH2 0x824 DUP2 DUP6 PUSH2 0x714 JUMP JUMPDEST SWAP4 POP DUP4 PUSH1 0x20 DUP3 MUL DUP6 ADD PUSH2 0x836 DUP6 PUSH2 0x724 JUMP JUMPDEST DUP1 PUSH0 JUMPDEST DUP6 DUP2 LT ISZERO PUSH2 0x871 JUMPI DUP5 DUP5 SUB DUP10 MSTORE DUP2 MLOAD PUSH2 0x852 DUP6 DUP3 PUSH2 0x7F1 JUMP JUMPDEST SWAP5 POP PUSH2 0x85D DUP4 PUSH2 0x804 JUMP JUMPDEST SWAP3 POP PUSH1 0x20 DUP11 ADD SWAP10 POP POP PUSH1 0x1 DUP2 ADD SWAP1 POP PUSH2 0x839 JUMP JUMPDEST POP DUP3 SWAP8 POP DUP8 SWAP6 POP POP POP POP POP POP SWAP3 SWAP2 POP POP JUMP JUMPDEST PUSH0 PUSH1 0x20 DUP3 ADD SWAP1 POP DUP2 DUP2 SUB PUSH0 DUP4 ADD MSTORE PUSH2 0x89B DUP2 DUP5 PUSH2 0x810 JUMP JUMPDEST SWAP1 POP SWAP3 SWAP2 POP POP JUMP JUMPDEST PUSH0 PUSH0 REVERT JUMPDEST PUSH0 PUSH0 REVERT JUMPDEST PUSH32 0x4E487B7100000000000000000000000000000000000000000000000000000000 PUSH0 MSTORE PUSH1 0x41 PUSH1 0x4 MSTORE PUSH1 0x24 PUSH0 REVERT JUMPDEST PUSH2 0x8E1 DUP3 PUSH2 0x619 JUMP JUMPDEST DUP2 ADD DUP2 DUP2 LT PUSH8 0xFFFFFFFFFFFFFFFF DUP3 GT OR ISZERO PUSH2 0x900 JUMPI PUSH2 0x8FF PUSH2 0x8AB JUMP JUMPDEST JUMPDEST DUP1 PUSH1 0x40 MSTORE POP POP POP JUMP JUMPDEST PUSH0 PUSH2 0x912 PUSH2 0x573 JUMP JUMPDEST SWAP1 POP PUSH2 0x91E DUP3 DUP3 PUSH2 0x8D8 JUMP JUMPDEST SWAP2 SWAP1 POP JUMP JUMPDEST PUSH0 PUSH8 0xFFFFFFFFFFFFFFFF DUP3 GT ISZERO PUSH2 0x93D JUMPI PUSH2 0x93C PUSH2 0x8AB JUMP JUMPDEST JUMPDEST PUSH2 0x946 DUP3 PUSH2 0x619 JUMP JUMPDEST SWAP1 POP PUSH1 0x20 DUP2 ADD SWAP1 POP SWAP2 SWAP1 POP JUMP JUMPDEST DUP3 DUP2 DUP4 CALLDATACOPY PUSH0 DUP4 DUP4 ADD MSTORE POP POP POP JUMP JUMPDEST PUSH0 PUSH2 0x973 PUSH2 0x96E DUP5 PUSH2 0x923 JUMP JUMPDEST PUSH2 0x909 JUMP JUMPDEST SWAP1 POP DUP3 DUP2 MSTORE PUSH1 0x20 DUP2 ADD DUP5 DUP5 DUP5 ADD GT ISZERO PUSH2 0x98F JUMPI PUSH2 0x98E PUSH2 0x8A7 JUMP JUMPDEST JUMPDEST PUSH2 0x99A DUP5 DUP3 DUP6 PUSH2 0x953 JUMP JUMPDEST POP SWAP4 SWAP3 POP POP POP JUMP JUMPDEST PUSH0 DUP3 PUSH1 0x1F DUP4 ADD SLT PUSH2 0x9B6 JUMPI PUSH2 0x9B5 PUSH2 0x8A3 JUMP JUMPDEST JUMPDEST DUP2 CALLDATALOAD PUSH2 0x9C6 DUP5 DUP3 PUSH1 0x20 DUP7 ADD PUSH2 0x961 JUMP JUMPDEST SWAP2 POP POP SWAP3 SWAP2 POP POP JUMP JUMPDEST PUSH0 PUSH0 PUSH0 PUSH0 PUSH1 0x80 DUP6 DUP8 SUB SLT ISZERO PUSH2 0x9E7 JUMPI PUSH2 0x9E6 PUSH2 0x57C JUMP JUMPDEST JUMPDEST PUSH0 PUSH2 0x9F4 DUP8 DUP3 DUP9 ADD PUSH2 0x5A3 JUMP JUMPDEST SWAP5 POP POP PUSH1 0x20 DUP6 ADD CALLDATALOAD PUSH8 0xFFFFFFFFFFFFFFFF DUP2 GT ISZERO PUSH2 0xA15 JUMPI PUSH2 0xA14 PUSH2 0x580 JUMP JUMPDEST JUMPDEST PUSH2 0xA21 DUP8 DUP3 DUP9 ADD PUSH2 0x9A2 JUMP JUMPDEST SWAP4 POP POP PUSH1 0x40 DUP6 ADD CALLDATALOAD PUSH8 0xFFFFFFFFFFFFFFFF DUP2 GT ISZERO PUSH2 0xA42 JUMPI PUSH2 0xA41 PUSH2 0x580 JUMP JUMPDEST JUMPDEST PUSH2 0xA4E DUP8 DUP3 DUP9 ADD PUSH2 0x9A2 JUMP JUMPDEST SWAP3 POP POP PUSH1 0x60 PUSH2 0xA5F DUP8 DUP3 DUP9 ADD PUSH2 0x5A3 JUMP JUMPDEST SWAP2 POP POP SWAP3 SWAP6 SWAP2 SWAP5 POP SWAP3 POP JUMP JUMPDEST PUSH0 PUSH1 0x20 DUP3 ADD SWAP1 POP PUSH2 0xA7E PUSH0 DUP4 ADD DUP5 PUSH2 0x5E2 JUMP JUMPDEST SWAP3 SWAP2 POP POP JUMP JUMPDEST PUSH32 0x4E487B7100000000000000000000000000000000000000000000000000000000 PUSH0 MSTORE PUSH1 0x22 PUSH1 0x4 MSTORE PUSH1 0x24 PUSH0 REVERT JUMPDEST PUSH0 PUSH1 0x2 DUP3 DIV SWAP1 POP PUSH1 0x1 DUP3 AND DUP1 PUSH2 0xAC8 JUMPI PUSH1 0x7F DUP3 AND SWAP2 POP JUMPDEST PUSH1 0x20 DUP3 LT DUP2 SUB PUSH2 0xADB JUMPI PUSH2 0xADA PUSH2 0xA84 JUMP JUMPDEST JUMPDEST POP SWAP2 SWAP1 POP JUMP JUMPDEST PUSH32 0x4E487B7100000000000000000000000000000000000000000000000000000000 PUSH0 MSTORE PUSH1 0x32 PUSH1 0x4 MSTORE PUSH1 0x24 PUSH0 REVERT JUMPDEST PUSH32 0x4E487B7100000000000000000000000000000000000000000000000000000000 PUSH0 MSTORE PUSH1 0x11 PUSH1 0x4 MSTORE PUSH1 0x24 PUSH0 REVERT JUMPDEST PUSH0 PUSH2 0xB45 DUP3 PUSH2 0x584 JUMP JUMPDEST SWAP2 POP PUSH32 0xFFFFFFFFFFFFFFFFFFFFFFFFFFFFFFFFFFFFFFFFFFFFFFFFFFFFFFFFFFFFFFFF DUP3 SUB PUSH2 0xB77 JUMPI PUSH2 0xB76 PUSH2 0xB0E JUMP JUMPDEST JUMPDEST PUSH1 0x1 DUP3 ADD SWAP1 POP SWAP2 SWAP1 POP JUMP JUMPDEST PUSH0 DUP2 SWAP1 POP DUP2 PUSH0 MSTORE PUSH1 0x20 PUSH0 KECCAK256 SWAP1 POP SWAP2 SWAP1 POP JUMP JUMPDEST PUSH0 PUSH1 0x20 PUSH1 0x1F DUP4 ADD DIV SWAP1 POP SWAP2 SWAP1 POP JUMP JUMPDEST PUSH0 DUP3 DUP3 SHL SWAP1 POP SWAP3 SWAP2 POP POP JUMP JUMPDEST PUSH0 PUSH1 0x8 DUP4 MUL PUSH2 0xBDE PUSH32 0xFFFFFFFFFFFFFFFFFFFFFFFFFFFFFFFFFFFFFFFFFFFFFFFFFFFFFFFFFFFFFFFF DUP3 PUSH2 0xBA3 JUMP JUMPDEST PUSH2 0xBE8 DUP7 DUP4 PUSH2 0xBA3 JUMP JUMPDEST SWAP6 POP DUP1 NOT DUP5 AND SWAP4 POP DUP1 DUP7 AND DUP5 OR SWAP3 POP POP POP SWAP4 SWAP3 POP POP POP JUMP JUMPDEST PUSH0 DUP2 SWAP1 POP SWAP2 SWAP1 POP JUMP JUMPDEST PUSH0 PUSH2 0xC23 PUSH2 0xC1E PUSH2 0xC19 DUP5 PUSH2 0x584 JUMP JUMPDEST PUSH2 0xC00 JUMP JUMPDEST PUSH2 0x584 JUMP JUMPDEST SWAP1 POP SWAP2 SWAP1 POP JUMP JUMPDEST PUSH0 DUP2 SWAP1 POP SWAP2 SWAP1 POP JUMP JUMPDEST PUSH2 0xC3C DUP4 PUSH2 0xC09 JUMP JUMPDEST PUSH2 0xC50 PUSH2 0xC48 DUP3 PUSH2 0xC2A JUMP JUMPDEST DUP5 DUP5 SLOAD PUSH2 0xBAF JUMP JUMPDEST DUP3 SSTORE POP POP POP POP JUMP JUMPDEST PUSH0 PUSH0 SWAP1 POP SWAP1 JUMP JUMPDEST PUSH2 0xC67 PUSH2 0xC58 JUMP JUMPDEST PUSH2 0xC72 DUP2 DUP5 DUP5 PUSH2 0xC33 JUMP JUMPDEST POP POP POP JUMP JUMPDEST JUMPDEST DUP2 DUP2 LT ISZERO PUSH2 0xC95 JUMPI PUSH2 0xC8A PUSH0 DUP3 PUSH2 0xC5F JUMP JUMPDEST PUSH1 0x1 DUP2 ADD SWAP1 POP PUSH2 0xC78 JUMP JUMPDEST POP POP JUMP JUMPDEST PUSH1 0x1F DUP3 GT ISZERO PUSH2 0xCDA JUMPI PUSH2 0xCAB DUP2 PUSH2 0xB82 JUMP JUMPDEST PUSH2 0xCB4 DUP5 PUSH2 0xB94 JUMP JUMPDEST DUP2 ADD PUSH1 0x20 DUP6 LT ISZERO PUSH2 0xCC3 JUMPI DUP2 SWAP1 POP JUMPDEST PUSH2 0xCD7 PUSH2 0xCCF DUP6 PUSH2 0xB94 JUMP JUMPDEST DUP4 ADD DUP3 PUSH2 0xC77 JUMP JUMPDEST POP POP JUMPDEST POP POP POP JUMP JUMPDEST PUSH0 DUP3 DUP3 SHR SWAP1 POP SWAP3 SWAP2 POP POP JUMP JUMPDEST PUSH0 PUSH2 0xCFA PUSH0 NOT DUP5 PUSH1 0x8 MUL PUSH2 0xCDF JUMP JUMPDEST NOT DUP1 DUP4 AND SWAP2 POP POP SWAP3 SWAP2 POP POP JUMP JUMPDEST PUSH0 PUSH2 0xD12 DUP4 DUP4 PUSH2 0xCEB JUMP JUMPDEST SWAP2 POP DUP3 PUSH1 0x2 MUL DUP3 OR SWAP1 POP SWAP3 SWAP2 POP POP JUMP JUMPDEST PUSH2 0xD2B DUP3 PUSH2 0x5F1 JUMP JUMPDEST PUSH8 0xFFFFFFFFFFFFFFFF DUP2 GT ISZERO PUSH2 0xD44 JUMPI PUSH2 0xD43 PUSH2 0x8AB JUMP JUMPDEST JUMPDEST PUSH2 0xD4E DUP3 SLOAD PUSH2 0xAB1 JUMP JUMPDEST PUSH2 0xD59 DUP3 DUP3 DUP6 PUSH2 0xC99 JUMP JUMPDEST PUSH0 PUSH1 0x20 SWAP1 POP PUSH1 0x1F DUP4 GT PUSH1 0x1 DUP2 EQ PUSH2 0xD8A JUMPI PUSH0 DUP5 ISZERO PUSH2 0xD78 JUMPI DUP3 DUP8 ADD MLOAD SWAP1 POP JUMPDEST PUSH2 0xD82 DUP6 DUP3 PUSH2 0xD07 JUMP JUMPDEST DUP7 SSTORE POP PUSH2 0xDE9 JUMP JUMPDEST PUSH1 0x1F NOT DUP5 AND PUSH2 0xD98 DUP7 PUSH2 0xB82 JUMP JUMPDEST PUSH0 JUMPDEST DUP3 DUP2 LT ISZERO PUSH2 0xDBF JUMPI DUP5 DUP10 ADD MLOAD DUP3 SSTORE PUSH1 0x1 DUP3 ADD SWAP2 POP PUSH1 0x20 DUP6 ADD SWAP5 POP PUSH1 0x20 DUP2 ADD SWAP1 POP PUSH2 0xD9A JUMP JUMPDEST DUP7 DUP4 LT ISZERO PUSH2 0xDDC JUMPI DUP5 DUP10 ADD MLOAD PUSH2 0xDD8 PUSH1 0x1F DUP10 AND DUP3 PUSH2 0xCEB JUMP JUMPDEST DUP4 SSTORE POP JUMPDEST PUSH1 0x1 PUSH1 0x2 DUP9 MUL ADD DUP9 SSTORE POP POP POP JUMPDEST POP POP POP POP POP POP JUMP INVALID LOG2 PUSH5 0x6970667358 0x22 SLT KECCAK256 CREATE PUSH31 0x946FA3A984ACC17E7B5295A110D9A0850F79CBEB6FC8004D8E427106E42464 PUSH20 0x6F6C634300081E00330000000000000000000000 "
				},
				"gasEstimates": {
					"creation": {
						"codeDepositCost": "724600",
						"executionCost": "30027",
						"totalCost": "754627"
					},
					"external": {
						"": "172",
						"addNewRecords(uint256,string,string,uint256)": "infinite",
						"getAllRecords()": "infinite",
						"owner()": "2507",
						"stdCount()": "2491",
						"stdRecords(uint256)": "infinite"
					}
				},
				"methodIdentifiers": {
					"addNewRecords(uint256,string,string,uint256)": "c7c75156",
					"getAllRecords()": "a7f9fe72",
					"owner()": "8da5cb5b",
					"stdCount()": "fe615f2a",
					"stdRecords(uint256)": "0c3361fb"
				}
			},
			"storageLayout": {
				"storage": [
					{
						"astId": 12,
						"contract": "marksmanagementsys.sol:MarksManagmtSys",
						"label": "owner",
						"offset": 0,
						"slot": "0",
						"type": "t_address"
					},
					{
						"astId": 15,
						"contract": "marksmanagementsys.sol:MarksManagmtSys",
						"label": "stdCount",
						"offset": 0,
						"slot": "1",
						"type": "t_uint256"
					},
					{
						"astId": 19,
						"contract": "marksmanagementsys.sol:MarksManagmtSys",
						"label": "stdRecords",
						"offset": 0,
						"slot": "2",
						"type": "t_array(t_struct(StudentStruct)10_storage)dyn_storage"
					}
				],
				"types": {
					"t_address": {
						"encoding": "inplace",
						"label": "address",
						"numberOfBytes": "20"
					},
					"t_array(t_struct(StudentStruct)10_storage)dyn_storage": {
						"base": "t_struct(StudentStruct)10_storage",
						"encoding": "dynamic_array",
						"label": "struct MarksManagmtSys.StudentStruct[]",
						"numberOfBytes": "32"
					},
					"t_string_storage": {
						"encoding": "bytes",
						"label": "string",
						"numberOfBytes": "32"
					},
					"t_struct(StudentStruct)10_storage": {
						"encoding": "inplace",
						"label": "struct MarksManagmtSys.StudentStruct",
						"members": [
							{
								"astId": 3,
								"contract": "marksmanagementsys.sol:MarksManagmtSys",
								"label": "ID",
								"offset": 0,
								"slot": "0",
								"type": "t_uint256"
							},
							{
								"astId": 5,
								"contract": "marksmanagementsys.sol:MarksManagmtSys",
								"label": "fName",
								"offset": 0,
								"slot": "1",
								"type": "t_string_storage"
							},
							{
								"astId": 7,
								"contract": "marksmanagementsys.sol:MarksManagmtSys",
								"label": "lName",
								"offset": 0,
								"slot": "2",
								"type": "t_string_storage"
							},
							{
								"astId": 9,
								"contract": "marksmanagementsys.sol:MarksManagmtSys",
								"label": "marks",
								"offset": 0,
								"slot": "3",
								"type": "t_uint256"
							}
						],
						"numberOfBytes": "128"
					},
					"t_uint256": {
						"encoding": "inplace",
						"label": "uint256",
						"numberOfBytes": "32"
					}
				}
			},
			"userdoc": {
				"kind": "user",
				"methods": {},
				"version": 1
			}
		}
	}
}